{
  "contractName": "StrategyCafeLP",
  "abi": [
    {
      "inputs": [
        {
          "internalType": "address",
          "name": "_lpPair",
          "type": "address"
        },
        {
          "internalType": "uint8",
          "name": "_poolId",
          "type": "uint8"
        },
        {
          "internalType": "address",
          "name": "_vault",
          "type": "address"
        },
        {
          "internalType": "address",
          "name": "_strategist",
          "type": "address"
        },
        {
          "internalType": "address",
          "name": "_burnerAddress",
          "type": "address"
        }
      ],
      "stateMutability": "nonpayable",
      "type": "constructor"
    },
    {
      "anonymous": false,
      "inputs": [
        {
          "indexed": true,
          "internalType": "address",
          "name": "previousOwner",
          "type": "address"
        },
        {
          "indexed": true,
          "internalType": "address",
          "name": "newOwner",
          "type": "address"
        }
      ],
      "name": "OwnershipTransferred",
      "type": "event"
    },
    {
      "anonymous": false,
      "inputs": [
        {
          "indexed": false,
          "internalType": "address",
          "name": "account",
          "type": "address"
        }
      ],
      "name": "Paused",
      "type": "event"
    },
    {
      "anonymous": false,
      "inputs": [
        {
          "indexed": true,
          "internalType": "address",
          "name": "harvester",
          "type": "address"
        }
      ],
      "name": "StratHarvest",
      "type": "event"
    },
    {
      "anonymous": false,
      "inputs": [
        {
          "indexed": false,
          "internalType": "address",
          "name": "account",
          "type": "address"
        }
      ],
      "name": "Unpaused",
      "type": "event"
    },
    {
      "inputs": [],
      "name": "BURN_FEE",
      "outputs": [
        {
          "internalType": "uint256",
          "name": "",
          "type": "uint256"
        }
      ],
      "stateMutability": "view",
      "type": "function"
    },
    {
      "inputs": [],
      "name": "CALL_FEE",
      "outputs": [
        {
          "internalType": "uint256",
          "name": "",
          "type": "uint256"
        }
      ],
      "stateMutability": "view",
      "type": "function"
    },
    {
      "inputs": [],
      "name": "MAX_FEE",
      "outputs": [
        {
          "internalType": "uint256",
          "name": "",
          "type": "uint256"
        }
      ],
      "stateMutability": "view",
      "type": "function"
    },
    {
      "inputs": [],
      "name": "STRATEGIST_FEE",
      "outputs": [
        {
          "internalType": "uint256",
          "name": "",
          "type": "uint256"
        }
      ],
      "stateMutability": "view",
      "type": "function"
    },
    {
      "inputs": [],
      "name": "WITHDRAWAL_FEE",
      "outputs": [
        {
          "internalType": "uint256",
          "name": "",
          "type": "uint256"
        }
      ],
      "stateMutability": "view",
      "type": "function"
    },
    {
      "inputs": [],
      "name": "WITHDRAWAL_MAX",
      "outputs": [
        {
          "internalType": "uint256",
          "name": "",
          "type": "uint256"
        }
      ],
      "stateMutability": "view",
      "type": "function"
    },
    {
      "inputs": [],
      "name": "brew",
      "outputs": [
        {
          "internalType": "address",
          "name": "",
          "type": "address"
        }
      ],
      "stateMutability": "view",
      "type": "function"
    },
    {
      "inputs": [],
      "name": "burnerAddress",
      "outputs": [
        {
          "internalType": "address",
          "name": "",
          "type": "address"
        }
      ],
      "stateMutability": "view",
      "type": "function"
    },
    {
      "inputs": [],
      "name": "busd",
      "outputs": [
        {
          "internalType": "address",
          "name": "",
          "type": "address"
        }
      ],
      "stateMutability": "view",
      "type": "function"
    },
    {
      "inputs": [],
      "name": "lpPair",
      "outputs": [
        {
          "internalType": "address",
          "name": "",
          "type": "address"
        }
      ],
      "stateMutability": "view",
      "type": "function"
    },
    {
      "inputs": [],
      "name": "lpToken0",
      "outputs": [
        {
          "internalType": "address",
          "name": "",
          "type": "address"
        }
      ],
      "stateMutability": "view",
      "type": "function"
    },
    {
      "inputs": [],
      "name": "lpToken1",
      "outputs": [
        {
          "internalType": "address",
          "name": "",
          "type": "address"
        }
      ],
      "stateMutability": "view",
      "type": "function"
    },
    {
      "inputs": [],
      "name": "masterchef",
      "outputs": [
        {
          "internalType": "address",
          "name": "",
          "type": "address"
        }
      ],
      "stateMutability": "view",
      "type": "function"
    },
    {
      "inputs": [],
      "name": "owner",
      "outputs": [
        {
          "internalType": "address",
          "name": "",
          "type": "address"
        }
      ],
      "stateMutability": "view",
      "type": "function"
    },
    {
      "inputs": [],
      "name": "paused",
      "outputs": [
        {
          "internalType": "bool",
          "name": "",
          "type": "bool"
        }
      ],
      "stateMutability": "view",
      "type": "function"
    },
    {
      "inputs": [],
      "name": "poolId",
      "outputs": [
        {
          "internalType": "uint8",
          "name": "",
          "type": "uint8"
        }
      ],
      "stateMutability": "view",
      "type": "function"
    },
    {
      "inputs": [],
      "name": "renounceOwnership",
      "outputs": [],
      "stateMutability": "nonpayable",
      "type": "function"
    },
    {
      "inputs": [],
      "name": "rewardToken",
      "outputs": [
        {
          "internalType": "address",
          "name": "",
          "type": "address"
        }
      ],
      "stateMutability": "view",
      "type": "function"
    },
    {
      "inputs": [
        {
          "internalType": "uint256",
          "name": "",
          "type": "uint256"
        }
      ],
      "name": "rewardTokenToLp0Route",
      "outputs": [
        {
          "internalType": "address",
          "name": "",
          "type": "address"
        }
      ],
      "stateMutability": "view",
      "type": "function"
    },
    {
      "inputs": [
        {
          "internalType": "uint256",
          "name": "",
          "type": "uint256"
        }
      ],
      "name": "rewardTokenToLp1Route",
      "outputs": [
        {
          "internalType": "address",
          "name": "",
          "type": "address"
        }
      ],
      "stateMutability": "view",
      "type": "function"
    },
    {
      "inputs": [
        {
          "internalType": "uint256",
          "name": "",
          "type": "uint256"
        }
      ],
      "name": "rewardTokenToWbnbRoute",
      "outputs": [
        {
          "internalType": "address",
          "name": "",
          "type": "address"
        }
      ],
      "stateMutability": "view",
      "type": "function"
    },
    {
      "inputs": [],
      "name": "strategist",
      "outputs": [
        {
          "internalType": "address",
          "name": "",
          "type": "address"
        }
      ],
      "stateMutability": "view",
      "type": "function"
    },
    {
      "inputs": [
        {
          "internalType": "address",
          "name": "newOwner",
          "type": "address"
        }
      ],
      "name": "transferOwnership",
      "outputs": [],
      "stateMutability": "nonpayable",
      "type": "function"
    },
    {
      "inputs": [],
      "name": "unirouter",
      "outputs": [
        {
          "internalType": "address",
          "name": "",
          "type": "address"
        }
      ],
      "stateMutability": "view",
      "type": "function"
    },
    {
      "inputs": [],
      "name": "vault",
      "outputs": [
        {
          "internalType": "address",
          "name": "",
          "type": "address"
        }
      ],
      "stateMutability": "view",
      "type": "function"
    },
    {
      "inputs": [],
      "name": "wbnb",
      "outputs": [
        {
          "internalType": "address",
          "name": "",
          "type": "address"
        }
      ],
      "stateMutability": "view",
      "type": "function"
    },
    {
      "inputs": [
        {
          "internalType": "uint256",
          "name": "",
          "type": "uint256"
        }
      ],
      "name": "wbnbToBrewRoute",
      "outputs": [
        {
          "internalType": "address",
          "name": "",
          "type": "address"
        }
      ],
      "stateMutability": "view",
      "type": "function"
    },
    {
      "inputs": [],
      "name": "deposit",
      "outputs": [],
      "stateMutability": "nonpayable",
      "type": "function"
    },
    {
      "inputs": [
        {
          "internalType": "uint256",
          "name": "_amount",
          "type": "uint256"
        }
      ],
      "name": "withdraw",
      "outputs": [],
      "stateMutability": "nonpayable",
      "type": "function"
    },
    {
      "inputs": [],
      "name": "harvest",
      "outputs": [],
      "stateMutability": "nonpayable",
      "type": "function"
    },
    {
      "inputs": [],
      "name": "balanceOf",
      "outputs": [
        {
          "internalType": "uint256",
          "name": "",
          "type": "uint256"
        }
      ],
      "stateMutability": "view",
      "type": "function"
    },
    {
      "inputs": [],
      "name": "balanceOfLpPair",
      "outputs": [
        {
          "internalType": "uint256",
          "name": "",
          "type": "uint256"
        }
      ],
      "stateMutability": "view",
      "type": "function"
    },
    {
      "inputs": [],
      "name": "balanceOfPool",
      "outputs": [
        {
          "internalType": "uint256",
          "name": "",
          "type": "uint256"
        }
      ],
      "stateMutability": "view",
      "type": "function"
    },
    {
      "inputs": [],
      "name": "retireStrat",
      "outputs": [],
      "stateMutability": "nonpayable",
      "type": "function"
    },
    {
      "inputs": [],
      "name": "panic",
      "outputs": [],
      "stateMutability": "nonpayable",
      "type": "function"
    },
    {
      "inputs": [],
      "name": "pause",
      "outputs": [],
      "stateMutability": "nonpayable",
      "type": "function"
    },
    {
      "inputs": [],
      "name": "unpause",
      "outputs": [],
      "stateMutability": "nonpayable",
      "type": "function"
    },
    {
      "inputs": [
        {
          "internalType": "address",
          "name": "_strategist",
          "type": "address"
        }
      ],
      "name": "setStrategist",
      "outputs": [],
      "stateMutability": "nonpayable",
      "type": "function"
    }
  ],
  "bytecode": "0x6080604052604051806040016040528073790be81c3ca0e53974be2688cdb954732c9862e173ffffffffffffffffffffffffffffffffffffffff1673ffffffffffffffffffffffffffffffffffffffff16815260200173bb4cdb9cbd36b01bd1cbaebf2de08d9173bc095c73ffffffffffffffffffffffffffffffffffffffff1673ffffffffffffffffffffffffffffffffffffffff168152506007906002620000ab9291906200149d565b50604051806040016040528073bb4cdb9cbd36b01bd1cbaebf2de08d9173bc095c73ffffffffffffffffffffffffffffffffffffffff1673ffffffffffffffffffffffffffffffffffffffff16815260200173790be81c3ca0e53974be2688cdb954732c9862e173ffffffffffffffffffffffffffffffffffffffff1673ffffffffffffffffffffffffffffffffffffffff168152506008906002620001539291906200149d565b503480156200016157600080fd5b506040516200558138038062005581833981810160405260a08110156200018757600080fd5b8101908080519060200190929190805190602001909291908051906020019092919080519060200190929190805190602001909291905050506000620001d26200101460201b60201c565b9050806000806101000a81548173ffffffffffffffffffffffffffffffffffffffff021916908373ffffffffffffffffffffffffffffffffffffffff1602179055508073ffffffffffffffffffffffffffffffffffffffff16600073ffffffffffffffffffffffffffffffffffffffff167f8be0079c531659141344cd1fd0a4f28419497f9722a3daafe3b4186f6b6457e060405160405180910390a35060008060146101000a81548160ff02191690831515021790555084600260006101000a81548173ffffffffffffffffffffffffffffffffffffffff021916908373ffffffffffffffffffffffffffffffffffffffff160217905550600260009054906101000a900473ffffffffffffffffffffffffffffffffffffffff1673ffffffffffffffffffffffffffffffffffffffff16630dfe16816040518163ffffffff1660e01b815260040160206040518083038186803b1580156200033457600080fd5b505afa15801562000349573d6000803e3d6000fd5b505050506040513d60208110156200036057600080fd5b8101908080519060200190929190505050600360006101000a81548173ffffffffffffffffffffffffffffffffffffffff021916908373ffffffffffffffffffffffffffffffffffffffff160217905550600260009054906101000a900473ffffffffffffffffffffffffffffffffffffffff1673ffffffffffffffffffffffffffffffffffffffff1663d21220a76040518163ffffffff1660e01b815260040160206040518083038186803b1580156200041a57600080fd5b505afa1580156200042f573d6000803e3d6000fd5b505050506040513d60208110156200044657600080fd5b8101908080519060200190929190505050600460006101000a81548173ffffffffffffffffffffffffffffffffffffffff021916908373ffffffffffffffffffffffffffffffffffffffff16021790555083600460146101000a81548160ff021916908360ff16021790555082600560006101000a81548173ffffffffffffffffffffffffffffffffffffffff021916908373ffffffffffffffffffffffffffffffffffffffff16021790555081600660006101000a81548173ffffffffffffffffffffffffffffffffffffffff021916908373ffffffffffffffffffffffffffffffffffffffff16021790555080600160006101000a81548173ffffffffffffffffffffffffffffffffffffffff021916908373ffffffffffffffffffffffffffffffffffffffff16021790555073bb4cdb9cbd36b01bd1cbaebf2de08d9173bc095c73ffffffffffffffffffffffffffffffffffffffff16600360009054906101000a900473ffffffffffffffffffffffffffffffffffffffff1673ffffffffffffffffffffffffffffffffffffffff1614156200068e57604051806040016040528073790be81c3ca0e53974be2688cdb954732c9862e173ffffffffffffffffffffffffffffffffffffffff1673ffffffffffffffffffffffffffffffffffffffff16815260200173bb4cdb9cbd36b01bd1cbaebf2de08d9173bc095c73ffffffffffffffffffffffffffffffffffffffff1673ffffffffffffffffffffffffffffffffffffffff168152506009906002620006879291906200149d565b5062000910565b73e9e7cea3dedca5984780bafc599bd69add087d5673ffffffffffffffffffffffffffffffffffffffff16600360009054906101000a900473ffffffffffffffffffffffffffffffffffffffff1673ffffffffffffffffffffffffffffffffffffffff161415620007a757604051806040016040528073790be81c3ca0e53974be2688cdb954732c9862e173ffffffffffffffffffffffffffffffffffffffff1673ffffffffffffffffffffffffffffffffffffffff16815260200173e9e7cea3dedca5984780bafc599bd69add087d5673ffffffffffffffffffffffffffffffffffffffff1673ffffffffffffffffffffffffffffffffffffffff168152506009906002620007a09291906200149d565b506200090f565b73790be81c3ca0e53974be2688cdb954732c9862e173ffffffffffffffffffffffffffffffffffffffff16600360009054906101000a900473ffffffffffffffffffffffffffffffffffffffff1673ffffffffffffffffffffffffffffffffffffffff16146200090e57604051806060016040528073790be81c3ca0e53974be2688cdb954732c9862e173ffffffffffffffffffffffffffffffffffffffff1673ffffffffffffffffffffffffffffffffffffffff16815260200173bb4cdb9cbd36b01bd1cbaebf2de08d9173bc095c73ffffffffffffffffffffffffffffffffffffffff1673ffffffffffffffffffffffffffffffffffffffff168152602001600360009054906101000a900473ffffffffffffffffffffffffffffffffffffffff1673ffffffffffffffffffffffffffffffffffffffff1673ffffffffffffffffffffffffffffffffffffffff1681525060099060036200090c9291906200152c565b505b5b5b73bb4cdb9cbd36b01bd1cbaebf2de08d9173bc095c73ffffffffffffffffffffffffffffffffffffffff16600460009054906101000a900473ffffffffffffffffffffffffffffffffffffffff1673ffffffffffffffffffffffffffffffffffffffff16141562000a2957604051806040016040528073790be81c3ca0e53974be2688cdb954732c9862e173ffffffffffffffffffffffffffffffffffffffff1673ffffffffffffffffffffffffffffffffffffffff16815260200173bb4cdb9cbd36b01bd1cbaebf2de08d9173bc095c73ffffffffffffffffffffffffffffffffffffffff1673ffffffffffffffffffffffffffffffffffffffff16815250600a90600262000a229291906200149d565b5062000cab565b73e9e7cea3dedca5984780bafc599bd69add087d5673ffffffffffffffffffffffffffffffffffffffff16600460009054906101000a900473ffffffffffffffffffffffffffffffffffffffff1673ffffffffffffffffffffffffffffffffffffffff16141562000b4257604051806040016040528073790be81c3ca0e53974be2688cdb954732c9862e173ffffffffffffffffffffffffffffffffffffffff1673ffffffffffffffffffffffffffffffffffffffff16815260200173e9e7cea3dedca5984780bafc599bd69add087d5673ffffffffffffffffffffffffffffffffffffffff1673ffffffffffffffffffffffffffffffffffffffff16815250600a90600262000b3b9291906200149d565b5062000caa565b73790be81c3ca0e53974be2688cdb954732c9862e173ffffffffffffffffffffffffffffffffffffffff16600460009054906101000a900473ffffffffffffffffffffffffffffffffffffffff1673ffffffffffffffffffffffffffffffffffffffff161462000ca957604051806060016040528073790be81c3ca0e53974be2688cdb954732c9862e173ffffffffffffffffffffffffffffffffffffffff1673ffffffffffffffffffffffffffffffffffffffff16815260200173bb4cdb9cbd36b01bd1cbaebf2de08d9173bc095c73ffffffffffffffffffffffffffffffffffffffff1673ffffffffffffffffffffffffffffffffffffffff168152602001600460009054906101000a900473ffffffffffffffffffffffffffffffffffffffff1673ffffffffffffffffffffffffffffffffffffffff1673ffffffffffffffffffffffffffffffffffffffff16815250600a90600362000ca79291906200152c565b505b5b5b62000d3373c772955c33088a97d56d0bbf473d05267bc4febb7fffffffffffffffffffffffffffffffffffffffffffffffffffffffffffffffff600260009054906101000a900473ffffffffffffffffffffffffffffffffffffffff1673ffffffffffffffffffffffffffffffffffffffff166200101c60201b6200248a179092919060201c565b62000dad73933daea3a5995fb94b14a7696a5f3ffd7b1e385a7fffffffffffffffffffffffffffffffffffffffffffffffffffffffffffffffff73790be81c3ca0e53974be2688cdb954732c9862e173ffffffffffffffffffffffffffffffffffffffff166200101c60201b6200248a179092919060201c565b62000e2773933daea3a5995fb94b14a7696a5f3ffd7b1e385a7fffffffffffffffffffffffffffffffffffffffffffffffffffffffffffffffff73bb4cdb9cbd36b01bd1cbaebf2de08d9173bc095c73ffffffffffffffffffffffffffffffffffffffff166200101c60201b6200248a179092919060201c565b62000e9073933daea3a5995fb94b14a7696a5f3ffd7b1e385a6000600360009054906101000a900473ffffffffffffffffffffffffffffffffffffffff1673ffffffffffffffffffffffffffffffffffffffff166200101c60201b6200248a179092919060201c565b62000f1873933daea3a5995fb94b14a7696a5f3ffd7b1e385a7fffffffffffffffffffffffffffffffffffffffffffffffffffffffffffffffff600360009054906101000a900473ffffffffffffffffffffffffffffffffffffffff1673ffffffffffffffffffffffffffffffffffffffff166200101c60201b6200248a179092919060201c565b62000f8173933daea3a5995fb94b14a7696a5f3ffd7b1e385a6000600460009054906101000a900473ffffffffffffffffffffffffffffffffffffffff1673ffffffffffffffffffffffffffffffffffffffff166200101c60201b6200248a179092919060201c565b6200100973933daea3a5995fb94b14a7696a5f3ffd7b1e385a7fffffffffffffffffffffffffffffffffffffffffffffffffffffffffffffffff600460009054906101000a900473ffffffffffffffffffffffffffffffffffffffff1673ffffffffffffffffffffffffffffffffffffffff166200101c60201b6200248a179092919060201c565b5050505050620015f8565b600033905090565b6000811480620010ee575060008373ffffffffffffffffffffffffffffffffffffffff1663dd62ed3e30856040518363ffffffff1660e01b8152600401808373ffffffffffffffffffffffffffffffffffffffff1681526020018273ffffffffffffffffffffffffffffffffffffffff1681526020019250505060206040518083038186803b158015620010af57600080fd5b505afa158015620010c4573d6000803e3d6000fd5b505050506040513d6020811015620010db57600080fd5b8101908080519060200190929190505050145b62001145576040517f08c379a00000000000000000000000000000000000000000000000000000000081526004018080602001828103825260368152602001806200554b6036913960400191505060405180910390fd5b620011ea8363095ea7b360e01b8484604051602401808373ffffffffffffffffffffffffffffffffffffffff16815260200182815260200192505050604051602081830303815290604052907bffffffffffffffffffffffffffffffffffffffffffffffffffffffff19166020820180517bffffffffffffffffffffffffffffffffffffffffffffffffffffffff8381831617835250505050620011ef60201b60201c565b505050565b6200121b8273ffffffffffffffffffffffffffffffffffffffff166200145160201b6200264f1760201c565b6200128e576040517f08c379a000000000000000000000000000000000000000000000000000000000815260040180806020018281038252601f8152602001807f5361666545524332303a2063616c6c20746f206e6f6e2d636f6e74726163740081525060200191505060405180910390fd5b600060608373ffffffffffffffffffffffffffffffffffffffff16836040518082805190602001908083835b60208310620012df5780518252602082019150602081019050602083039250620012ba565b6001836020036101000a0380198251168184511680821785525050505050509050019150506000604051808303816000865af19150503d806000811462001343576040519150601f19603f3d011682016040523d82523d6000602084013e62001348565b606091505b509150915081620013c1576040517f08c379a00000000000000000000000000000000000000000000000000000000081526004018080602001828103825260208152602001807f5361666545524332303a206c6f772d6c6576656c2063616c6c206661696c656481525060200191505060405180910390fd5b6000815111156200144b57808060200190516020811015620013e257600080fd5b81019080805190602001909291905050506200144a576040517f08c379a000000000000000000000000000000000000000000000000000000000815260040180806020018281038252602a81526020018062005521602a913960400191505060405180910390fd5b5b50505050565b60008060007fc5d2460186f7233c927e7db2dcc703c0e500b653ca82273b7bfad8045d85a47060001b9050833f91508082141580156200149457506000801b8214155b92505050919050565b82805482825590600052602060002090810192821562001519579160200282015b82811115620015185782518260006101000a81548173ffffffffffffffffffffffffffffffffffffffff021916908373ffffffffffffffffffffffffffffffffffffffff16021790555091602001919060010190620014be565b5b509050620015289190620015bb565b5090565b828054828255906000526020600020908101928215620015a8579160200282015b82811115620015a75782518260006101000a81548173ffffffffffffffffffffffffffffffffffffffff021916908373ffffffffffffffffffffffffffffffffffffffff160217905550916020019190600101906200154d565b5b509050620015b79190620015bb565b5090565b5b80821115620015f457600081816101000a81549073ffffffffffffffffffffffffffffffffffffffff021916905550600101620015bc565b5090565b613f1980620016086000396000f3fe608060405234801561001057600080fd5b50600436106102325760003560e01c80637d38ca6511610130578063c7b9d530116100b8578063f45bc2df1161007c578063f45bc2df14610788578063f7c618c1146107e0578063fb1db27814610814578063fb61778714610848578063fbfa77cf1461085257610232565b8063c7b9d5301461066a578063d0e30db0146106ae578063d0f2e818146106b8578063e6293e2314610710578063f2fde38b1461074457610232565b80638da5cb5b116100ff5780638da5cb5b146105be578063951d6d20146105f2578063a5d33ed514610610578063bc063e1a1461062e578063c2351cdd1461064c57610232565b80637d38ca651461052e5780638456cb591461054c578063877562b6146105565780638d72647e1461058a57610232565b80634641257d116101be5780635c975abb116101825780635c975abb1461045a5780635d51a47d1461047a5780635ee167c0146104d2578063715018a614610506578063722713f71461051057610232565b80634641257d146103b25780634700d305146103bc578063480df058146103c657806354518b1a146103e457806359a9d23a1461040257610232565b80632e1a7d4d116102055780632e1a7d4d146102f15780633ca5b2341461031f5780633e0dc34e146103535780633f4ba83a14610374578063452ed4f11461037e57610232565b80631158808614610237578063176f0c47146102555780631fe4a68614610289578063257ae0de146102bd575b600080fd5b61023f610886565b6040518082815260200191505060405180910390f35b61025d61096c565b604051808273ffffffffffffffffffffffffffffffffffffffff16815260200191505060405180910390f35b610291610984565b604051808273ffffffffffffffffffffffffffffffffffffffff16815260200191505060405180910390f35b6102c56109aa565b604051808273ffffffffffffffffffffffffffffffffffffffff16815260200191505060405180910390f35b61031d6004803603602081101561030757600080fd5b81019080803590602001909291905050506109c2565b005b610327610d85565b604051808273ffffffffffffffffffffffffffffffffffffffff16815260200191505060405180910390f35b61035b610d9d565b604051808260ff16815260200191505060405180910390f35b61037c610db0565b005b6103866111af565b604051808273ffffffffffffffffffffffffffffffffffffffff16815260200191505060405180910390f35b6103ba6111d5565b005b6103c46113cb565b005b6103ce61152e565b6040518082815260200191505060405180910390f35b6103ec611534565b6040518082815260200191505060405180910390f35b61042e6004803603602081101561041857600080fd5b810190808035906020019092919050505061153a565b604051808273ffffffffffffffffffffffffffffffffffffffff16815260200191505060405180910390f35b610462611576565b60405180821515815260200191505060405180910390f35b6104a66004803603602081101561049057600080fd5b810190808035906020019092919050505061158c565b604051808273ffffffffffffffffffffffffffffffffffffffff16815260200191505060405180910390f35b6104da6115c8565b604051808273ffffffffffffffffffffffffffffffffffffffff16815260200191505060405180910390f35b61050e6115ee565b005b610518611774565b6040518082815260200191505060405180910390f35b61053661179c565b6040518082815260200191505060405180910390f35b6105546117a1565b005b61055e611a41565b604051808273ffffffffffffffffffffffffffffffffffffffff16815260200191505060405180910390f35b610592611a67565b604051808273ffffffffffffffffffffffffffffffffffffffff16815260200191505060405180910390f35b6105c6611a7f565b604051808273ffffffffffffffffffffffffffffffffffffffff16815260200191505060405180910390f35b6105fa611aa8565b6040518082815260200191505060405180910390f35b610618611aad565b6040518082815260200191505060405180910390f35b610636611ab2565b6040518082815260200191505060405180910390f35b610654611ab8565b6040518082815260200191505060405180910390f35b6106ac6004803603602081101561068057600080fd5b81019080803573ffffffffffffffffffffffffffffffffffffffff169060200190929190505050611b83565b005b6106b6611c8a565b005b6106e4600480360360208110156106ce57600080fd5b8101908080359060200190929190505050611e7b565b604051808273ffffffffffffffffffffffffffffffffffffffff16815260200191505060405180910390f35b610718611eb7565b604051808273ffffffffffffffffffffffffffffffffffffffff16815260200191505060405180910390f35b6107866004803603602081101561075a57600080fd5b81019080803573ffffffffffffffffffffffffffffffffffffffff169060200190929190505050611edd565b005b6107b46004803603602081101561079e57600080fd5b81019080803590602001909291905050506120e8565b604051808273ffffffffffffffffffffffffffffffffffffffff16815260200191505060405180910390f35b6107e8612124565b604051808273ffffffffffffffffffffffffffffffffffffffff16815260200191505060405180910390f35b61081c61213c565b604051808273ffffffffffffffffffffffffffffffffffffffff16815260200191505060405180910390f35b610850612154565b005b61085a612464565b604051808273ffffffffffffffffffffffffffffffffffffffff16815260200191505060405180910390f35b60008073c772955c33088a97d56d0bbf473d05267bc4febb73ffffffffffffffffffffffffffffffffffffffff166393f1a40b600460149054906101000a900460ff16306040518363ffffffff1660e01b8152600401808360ff1681526020018273ffffffffffffffffffffffffffffffffffffffff16815260200192505050604080518083038186803b15801561091d57600080fd5b505afa158015610931573d6000803e3d6000fd5b505050506040513d604081101561094757600080fd5b8101908080519060200190929190805190602001909291905050505090508091505090565b73790be81c3ca0e53974be2688cdb954732c9862e181565b600660009054906101000a900473ffffffffffffffffffffffffffffffffffffffff1681565b73933daea3a5995fb94b14a7696a5f3ffd7b1e385a81565b600560009054906101000a900473ffffffffffffffffffffffffffffffffffffffff1673ffffffffffffffffffffffffffffffffffffffff163373ffffffffffffffffffffffffffffffffffffffff1614610a85576040517f08c379a00000000000000000000000000000000000000000000000000000000081526004018080602001828103825260068152602001807f217661756c74000000000000000000000000000000000000000000000000000081525060200191505060405180910390fd5b6000600260009054906101000a900473ffffffffffffffffffffffffffffffffffffffff1673ffffffffffffffffffffffffffffffffffffffff166370a08231306040518263ffffffff1660e01b8152600401808273ffffffffffffffffffffffffffffffffffffffff16815260200191505060206040518083038186803b158015610b1057600080fd5b505afa158015610b24573d6000803e3d6000fd5b505050506040513d6020811015610b3a57600080fd5b8101908080519060200190929190505050905081811015610cc75773c772955c33088a97d56d0bbf473d05267bc4febb73ffffffffffffffffffffffffffffffffffffffff1663441a3e70600460149054906101000a900460ff16610ba8848661269a90919063ffffffff16565b6040518363ffffffff1660e01b8152600401808360ff16815260200182815260200192505050600060405180830381600087803b158015610be857600080fd5b505af1158015610bfc573d6000803e3d6000fd5b50505050600260009054906101000a900473ffffffffffffffffffffffffffffffffffffffff1673ffffffffffffffffffffffffffffffffffffffff166370a08231306040518263ffffffff1660e01b8152600401808273ffffffffffffffffffffffffffffffffffffffff16815260200191505060206040518083038186803b158015610c8957600080fd5b505afa158015610c9d573d6000803e3d6000fd5b505050506040513d6020811015610cb357600080fd5b810190808051906020019092919050505090505b81811115610cd3578190505b6000610cfd612710610cef600a856126e490919063ffffffff16565b61276a90919063ffffffff16565b9050610d80600560009054906101000a900473ffffffffffffffffffffffffffffffffffffffff16610d38838561269a90919063ffffffff16565b600260009054906101000a900473ffffffffffffffffffffffffffffffffffffffff1673ffffffffffffffffffffffffffffffffffffffff166127b49092919063ffffffff16565b505050565b73e9e7cea3dedca5984780bafc599bd69add087d5681565b600460149054906101000a900460ff1681565b610db8612856565b73ffffffffffffffffffffffffffffffffffffffff1660008054906101000a900473ffffffffffffffffffffffffffffffffffffffff1673ffffffffffffffffffffffffffffffffffffffff1614610e78576040517f08c379a00000000000000000000000000000000000000000000000000000000081526004018080602001828103825260208152602001807f4f776e61626c653a2063616c6c6572206973206e6f7420746865206f776e657281525060200191505060405180910390fd5b610e8061285e565b610f0173c772955c33088a97d56d0bbf473d05267bc4febb7fffffffffffffffffffffffffffffffffffffffffffffffffffffffffffffffff600260009054906101000a900473ffffffffffffffffffffffffffffffffffffffff1673ffffffffffffffffffffffffffffffffffffffff1661248a9092919063ffffffff16565b610f7473933daea3a5995fb94b14a7696a5f3ffd7b1e385a7fffffffffffffffffffffffffffffffffffffffffffffffffffffffffffffffff73790be81c3ca0e53974be2688cdb954732c9862e173ffffffffffffffffffffffffffffffffffffffff1661248a9092919063ffffffff16565b610fe773933daea3a5995fb94b14a7696a5f3ffd7b1e385a7fffffffffffffffffffffffffffffffffffffffffffffffffffffffffffffffff73bb4cdb9cbd36b01bd1cbaebf2de08d9173bc095c73ffffffffffffffffffffffffffffffffffffffff1661248a9092919063ffffffff16565b61104973933daea3a5995fb94b14a7696a5f3ffd7b1e385a6000600360009054906101000a900473ffffffffffffffffffffffffffffffffffffffff1673ffffffffffffffffffffffffffffffffffffffff1661248a9092919063ffffffff16565b6110ca73933daea3a5995fb94b14a7696a5f3ffd7b1e385a7fffffffffffffffffffffffffffffffffffffffffffffffffffffffffffffffff600360009054906101000a900473ffffffffffffffffffffffffffffffffffffffff1673ffffffffffffffffffffffffffffffffffffffff1661248a9092919063ffffffff16565b61112c73933daea3a5995fb94b14a7696a5f3ffd7b1e385a6000600460009054906101000a900473ffffffffffffffffffffffffffffffffffffffff1673ffffffffffffffffffffffffffffffffffffffff1661248a9092919063ffffffff16565b6111ad73933daea3a5995fb94b14a7696a5f3ffd7b1e385a7fffffffffffffffffffffffffffffffffffffffffffffffffffffffffffffffff600460009054906101000a900473ffffffffffffffffffffffffffffffffffffffff1673ffffffffffffffffffffffffffffffffffffffff1661248a9092919063ffffffff16565b565b600260009054906101000a900473ffffffffffffffffffffffffffffffffffffffff1681565b600060149054906101000a900460ff1615611258576040517f08c379a00000000000000000000000000000000000000000000000000000000081526004018080602001828103825260108152602001807f5061757361626c653a207061757365640000000000000000000000000000000081525060200191505060405180910390fd5b6112613361264f565b156112d4576040517f08c379a00000000000000000000000000000000000000000000000000000000081526004018080602001828103825260098152602001807f21636f6e7472616374000000000000000000000000000000000000000000000081525060200191505060405180910390fd5b73c772955c33088a97d56d0bbf473d05267bc4febb73ffffffffffffffffffffffffffffffffffffffff1663e2bbb158600460149054906101000a900460ff1660006040518363ffffffff1660e01b8152600401808360ff16815260200182815260200192505050600060405180830381600087803b15801561135657600080fd5b505af115801561136a573d6000803e3d6000fd5b50505050611376612950565b61137e613033565b611386611c8a565b3373ffffffffffffffffffffffffffffffffffffffff167f577a37fdb49a88d66684922c6f913df5239b4f214b2b97c53ef8e3bbb2034cb560405160405180910390a2565b6113d3612856565b73ffffffffffffffffffffffffffffffffffffffff1660008054906101000a900473ffffffffffffffffffffffffffffffffffffffff1673ffffffffffffffffffffffffffffffffffffffff1614611493576040517f08c379a00000000000000000000000000000000000000000000000000000000081526004018080602001828103825260208152602001807f4f776e61626c653a2063616c6c6572206973206e6f7420746865206f776e657281525060200191505060405180910390fd5b61149b6117a1565b73c772955c33088a97d56d0bbf473d05267bc4febb73ffffffffffffffffffffffffffffffffffffffff16635312ea8e600460149054906101000a900460ff166040518263ffffffff1660e01b8152600401808260ff168152602001915050600060405180830381600087803b15801561151457600080fd5b505af1158015611528573d6000803e3d6000fd5b50505050565b61025881565b61271081565b600a818154811061154757fe5b906000526020600020016000915054906101000a900473ffffffffffffffffffffffffffffffffffffffff1681565b60008060149054906101000a900460ff16905090565b6008818154811061159957fe5b906000526020600020016000915054906101000a900473ffffffffffffffffffffffffffffffffffffffff1681565b600360009054906101000a900473ffffffffffffffffffffffffffffffffffffffff1681565b6115f6612856565b73ffffffffffffffffffffffffffffffffffffffff1660008054906101000a900473ffffffffffffffffffffffffffffffffffffffff1673ffffffffffffffffffffffffffffffffffffffff16146116b6576040517f08c379a00000000000000000000000000000000000000000000000000000000081526004018080602001828103825260208152602001807f4f776e61626c653a2063616c6c6572206973206e6f7420746865206f776e657281525060200191505060405180910390fd5b600073ffffffffffffffffffffffffffffffffffffffff1660008054906101000a900473ffffffffffffffffffffffffffffffffffffffff1673ffffffffffffffffffffffffffffffffffffffff167f8be0079c531659141344cd1fd0a4f28419497f9722a3daafe3b4186f6b6457e060405160405180910390a360008060006101000a81548173ffffffffffffffffffffffffffffffffffffffff021916908373ffffffffffffffffffffffffffffffffffffffff160217905550565b6000611797611781610886565b611789611ab8565b6138ef90919063ffffffff16565b905090565b60c881565b6117a9612856565b73ffffffffffffffffffffffffffffffffffffffff1660008054906101000a900473ffffffffffffffffffffffffffffffffffffffff1673ffffffffffffffffffffffffffffffffffffffff1614611869576040517f08c379a00000000000000000000000000000000000000000000000000000000081526004018080602001828103825260208152602001807f4f776e61626c653a2063616c6c6572206973206e6f7420746865206f776e657281525060200191505060405180910390fd5b611871613977565b6118d373c772955c33088a97d56d0bbf473d05267bc4febb6000600260009054906101000a900473ffffffffffffffffffffffffffffffffffffffff1673ffffffffffffffffffffffffffffffffffffffff1661248a9092919063ffffffff16565b61192773933daea3a5995fb94b14a7696a5f3ffd7b1e385a600073790be81c3ca0e53974be2688cdb954732c9862e173ffffffffffffffffffffffffffffffffffffffff1661248a9092919063ffffffff16565b61197b73933daea3a5995fb94b14a7696a5f3ffd7b1e385a600073bb4cdb9cbd36b01bd1cbaebf2de08d9173bc095c73ffffffffffffffffffffffffffffffffffffffff1661248a9092919063ffffffff16565b6119dd73933daea3a5995fb94b14a7696a5f3ffd7b1e385a6000600360009054906101000a900473ffffffffffffffffffffffffffffffffffffffff1673ffffffffffffffffffffffffffffffffffffffff1661248a9092919063ffffffff16565b611a3f73933daea3a5995fb94b14a7696a5f3ffd7b1e385a6000600460009054906101000a900473ffffffffffffffffffffffffffffffffffffffff1673ffffffffffffffffffffffffffffffffffffffff1661248a9092919063ffffffff16565b565b600460009054906101000a900473ffffffffffffffffffffffffffffffffffffffff1681565b73bb4cdb9cbd36b01bd1cbaebf2de08d9173bc095c81565b60008060009054906101000a900473ffffffffffffffffffffffffffffffffffffffff16905090565b60c881565b600a81565b6103e881565b6000600260009054906101000a900473ffffffffffffffffffffffffffffffffffffffff1673ffffffffffffffffffffffffffffffffffffffff166370a08231306040518263ffffffff1660e01b8152600401808273ffffffffffffffffffffffffffffffffffffffff16815260200191505060206040518083038186803b158015611b4357600080fd5b505afa158015611b57573d6000803e3d6000fd5b505050506040513d6020811015611b6d57600080fd5b8101908080519060200190929190505050905090565b600660009054906101000a900473ffffffffffffffffffffffffffffffffffffffff1673ffffffffffffffffffffffffffffffffffffffff163373ffffffffffffffffffffffffffffffffffffffff1614611c46576040517f08c379a000000000000000000000000000000000000000000000000000000000815260040180806020018281038252600b8152602001807f217374726174656769737400000000000000000000000000000000000000000081525060200191505060405180910390fd5b80600660006101000a81548173ffffffffffffffffffffffffffffffffffffffff021916908373ffffffffffffffffffffffffffffffffffffffff16021790555050565b600060149054906101000a900460ff1615611d0d576040517f08c379a00000000000000000000000000000000000000000000000000000000081526004018080602001828103825260108152602001807f5061757361626c653a207061757365640000000000000000000000000000000081525060200191505060405180910390fd5b6000600260009054906101000a900473ffffffffffffffffffffffffffffffffffffffff1673ffffffffffffffffffffffffffffffffffffffff166370a08231306040518263ffffffff1660e01b8152600401808273ffffffffffffffffffffffffffffffffffffffff16815260200191505060206040518083038186803b158015611d9857600080fd5b505afa158015611dac573d6000803e3d6000fd5b505050506040513d6020811015611dc257600080fd5b810190808051906020019092919050505090506000811115611e785773c772955c33088a97d56d0bbf473d05267bc4febb73ffffffffffffffffffffffffffffffffffffffff1663e2bbb158600460149054906101000a900460ff16836040518363ffffffff1660e01b8152600401808360ff16815260200182815260200192505050600060405180830381600087803b158015611e5f57600080fd5b505af1158015611e73573d6000803e3d6000fd5b505050505b50565b60098181548110611e8857fe5b906000526020600020016000915054906101000a900473ffffffffffffffffffffffffffffffffffffffff1681565b600160009054906101000a900473ffffffffffffffffffffffffffffffffffffffff1681565b611ee5612856565b73ffffffffffffffffffffffffffffffffffffffff1660008054906101000a900473ffffffffffffffffffffffffffffffffffffffff1673ffffffffffffffffffffffffffffffffffffffff1614611fa5576040517f08c379a00000000000000000000000000000000000000000000000000000000081526004018080602001828103825260208152602001807f4f776e61626c653a2063616c6c6572206973206e6f7420746865206f776e657281525060200191505060405180910390fd5b600073ffffffffffffffffffffffffffffffffffffffff168173ffffffffffffffffffffffffffffffffffffffff16141561202b576040517f08c379a0000000000000000000000000000000000000000000000000000000008152600401808060200182810382526026815260200180613e3d6026913960400191505060405180910390fd5b8073ffffffffffffffffffffffffffffffffffffffff1660008054906101000a900473ffffffffffffffffffffffffffffffffffffffff1673ffffffffffffffffffffffffffffffffffffffff167f8be0079c531659141344cd1fd0a4f28419497f9722a3daafe3b4186f6b6457e060405160405180910390a3806000806101000a81548173ffffffffffffffffffffffffffffffffffffffff021916908373ffffffffffffffffffffffffffffffffffffffff16021790555050565b600781815481106120f557fe5b906000526020600020016000915054906101000a900473ffffffffffffffffffffffffffffffffffffffff1681565b73790be81c3ca0e53974be2688cdb954732c9862e181565b73c772955c33088a97d56d0bbf473d05267bc4febb81565b600560009054906101000a900473ffffffffffffffffffffffffffffffffffffffff1673ffffffffffffffffffffffffffffffffffffffff163373ffffffffffffffffffffffffffffffffffffffff1614612217576040517f08c379a00000000000000000000000000000000000000000000000000000000081526004018080602001828103825260068152602001807f217661756c74000000000000000000000000000000000000000000000000000081525060200191505060405180910390fd5b73c772955c33088a97d56d0bbf473d05267bc4febb73ffffffffffffffffffffffffffffffffffffffff16635312ea8e600460149054906101000a900460ff166040518263ffffffff1660e01b8152600401808260ff168152602001915050600060405180830381600087803b15801561229057600080fd5b505af11580156122a4573d6000803e3d6000fd5b505050506000600260009054906101000a900473ffffffffffffffffffffffffffffffffffffffff1673ffffffffffffffffffffffffffffffffffffffff166370a08231306040518263ffffffff1660e01b8152600401808273ffffffffffffffffffffffffffffffffffffffff16815260200191505060206040518083038186803b15801561233357600080fd5b505afa158015612347573d6000803e3d6000fd5b505050506040513d602081101561235d57600080fd5b81019080805190602001909291905050509050600260009054906101000a900473ffffffffffffffffffffffffffffffffffffffff1673ffffffffffffffffffffffffffffffffffffffff1663a9059cbb600560009054906101000a900473ffffffffffffffffffffffffffffffffffffffff16836040518363ffffffff1660e01b8152600401808373ffffffffffffffffffffffffffffffffffffffff16815260200182815260200192505050602060405180830381600087803b15801561242557600080fd5b505af1158015612439573d6000803e3d6000fd5b505050506040513d602081101561244f57600080fd5b81019080805190602001909291905050505050565b600560009054906101000a900473ffffffffffffffffffffffffffffffffffffffff1681565b6000811480612558575060008373ffffffffffffffffffffffffffffffffffffffff1663dd62ed3e30856040518363ffffffff1660e01b8152600401808373ffffffffffffffffffffffffffffffffffffffff1681526020018273ffffffffffffffffffffffffffffffffffffffff1681526020019250505060206040518083038186803b15801561251b57600080fd5b505afa15801561252f573d6000803e3d6000fd5b505050506040513d602081101561254557600080fd5b8101908080519060200190929190505050145b6125ad576040517f08c379a0000000000000000000000000000000000000000000000000000000008152600401808060200182810382526036815260200180613eae6036913960400191505060405180910390fd5b61264a8363095ea7b360e01b8484604051602401808373ffffffffffffffffffffffffffffffffffffffff16815260200182815260200192505050604051602081830303815290604052907bffffffffffffffffffffffffffffffffffffffffffffffffffffffff19166020820180517bffffffffffffffffffffffffffffffffffffffffffffffffffffffff8381831617835250505050613a6b565b505050565b60008060007fc5d2460186f7233c927e7db2dcc703c0e500b653ca82273b7bfad8045d85a47060001b9050833f915080821415801561269157506000801b8214155b92505050919050565b60006126dc83836040518060400160405280601e81526020017f536166654d6174683a207375627472616374696f6e206f766572666c6f770000815250613cb6565b905092915050565b6000808314156126f75760009050612764565b600082840290508284828161270857fe5b041461275f576040517f08c379a0000000000000000000000000000000000000000000000000000000008152600401808060200182810382526021815260200180613e636021913960400191505060405180910390fd5b809150505b92915050565b60006127ac83836040518060400160405280601a81526020017f536166654d6174683a206469766973696f6e206279207a65726f000000000000815250613d76565b905092915050565b6128518363a9059cbb60e01b8484604051602401808373ffffffffffffffffffffffffffffffffffffffff16815260200182815260200192505050604051602081830303815290604052907bffffffffffffffffffffffffffffffffffffffffffffffffffffffff19166020820180517bffffffffffffffffffffffffffffffffffffffffffffffffffffffff8381831617835250505050613a6b565b505050565b600033905090565b600060149054906101000a900460ff166128e0576040517f08c379a00000000000000000000000000000000000000000000000000000000081526004018080602001828103825260148152602001807f5061757361626c653a206e6f742070617573656400000000000000000000000081525060200191505060405180910390fd5b60008060146101000a81548160ff0219169083151502179055507f5db9ee0a495bf2e6ff9c91a7834c1ba4fdd244a5e8aa4e537bd38aeae4b073aa612923612856565b604051808273ffffffffffffffffffffffffffffffffffffffff16815260200191505060405180910390a1565b6000612a2f6103e8612a21601973790be81c3ca0e53974be2688cdb954732c9862e173ffffffffffffffffffffffffffffffffffffffff166370a08231306040518263ffffffff1660e01b8152600401808273ffffffffffffffffffffffffffffffffffffffff16815260200191505060206040518083038186803b1580156129d857600080fd5b505afa1580156129ec573d6000803e3d6000fd5b505050506040513d6020811015612a0257600080fd5b81019080805190602001909291905050506126e490919063ffffffff16565b61276a90919063ffffffff16565b905073933daea3a5995fb94b14a7696a5f3ffd7b1e385a73ffffffffffffffffffffffffffffffffffffffff166338ed1739826000600730612a7c610258426138ef90919063ffffffff16565b6040518663ffffffff1660e01b815260040180868152602001858152602001806020018473ffffffffffffffffffffffffffffffffffffffff1681526020018381526020018281038252858181548152602001915080548015612b3457602002820191906000526020600020905b8160009054906101000a900473ffffffffffffffffffffffffffffffffffffffff1673ffffffffffffffffffffffffffffffffffffffff1681526020019060010190808311612aea575b50509650505050505050600060405180830381600087803b158015612b5857600080fd5b505af1158015612b6c573d6000803e3d6000fd5b505050506040513d6000823e3d601f19601f820116820180604052506020811015612b9657600080fd5b8101908080516040519392919084640100000000821115612bb657600080fd5b83820191506020820185811115612bcc57600080fd5b8251866020820283011164010000000082111715612be957600080fd5b8083526020830192505050908051906020019060200280838360005b83811015612c20578082015181840152602081019050612c05565b5050505090500160405250505050600073bb4cdb9cbd36b01bd1cbaebf2de08d9173bc095c73ffffffffffffffffffffffffffffffffffffffff166370a08231306040518263ffffffff1660e01b8152600401808273ffffffffffffffffffffffffffffffffffffffff16815260200191505060206040518083038186803b158015612cab57600080fd5b505afa158015612cbf573d6000803e3d6000fd5b505050506040513d6020811015612cd557600080fd5b810190808051906020019092919050505090506000612d126103e8612d0460c8856126e490919063ffffffff16565b61276a90919063ffffffff16565b9050612d53338273bb4cdb9cbd36b01bd1cbaebf2de08d9173bc095c73ffffffffffffffffffffffffffffffffffffffff166127b49092919063ffffffff16565b6000612d7e6103e8612d70610258866126e490919063ffffffff16565b61276a90919063ffffffff16565b905073933daea3a5995fb94b14a7696a5f3ffd7b1e385a73ffffffffffffffffffffffffffffffffffffffff166338ed17398260006008600160009054906101000a900473ffffffffffffffffffffffffffffffffffffffff16612ded610258426138ef90919063ffffffff16565b6040518663ffffffff1660e01b815260040180868152602001858152602001806020018473ffffffffffffffffffffffffffffffffffffffff1681526020018381526020018281038252858181548152602001915080548015612ea557602002820191906000526020600020905b8160009054906101000a900473ffffffffffffffffffffffffffffffffffffffff1673ffffffffffffffffffffffffffffffffffffffff1681526020019060010190808311612e5b575b50509650505050505050600060405180830381600087803b158015612ec957600080fd5b505af1158015612edd573d6000803e3d6000fd5b505050506040513d6000823e3d601f19601f820116820180604052506020811015612f0757600080fd5b8101908080516040519392919084640100000000821115612f2757600080fd5b83820191506020820185811115612f3d57600080fd5b8251866020820283011164010000000082111715612f5a57600080fd5b8083526020830192505050908051906020019060200280838360005b83811015612f91578082015181840152602081019050612f76565b50505050905001604052505050506000612fc96103e8612fbb60c8876126e490919063ffffffff16565b61276a90919063ffffffff16565b905061302c600660009054906101000a900473ffffffffffffffffffffffffffffffffffffffff168273bb4cdb9cbd36b01bd1cbaebf2de08d9173bc095c73ffffffffffffffffffffffffffffffffffffffff166127b49092919063ffffffff16565b5050505050565b60006130fe600273790be81c3ca0e53974be2688cdb954732c9862e173ffffffffffffffffffffffffffffffffffffffff166370a08231306040518263ffffffff1660e01b8152600401808273ffffffffffffffffffffffffffffffffffffffff16815260200191505060206040518083038186803b1580156130b557600080fd5b505afa1580156130c9573d6000803e3d6000fd5b505050506040513d60208110156130df57600080fd5b810190808051906020019092919050505061276a90919063ffffffff16565b905073790be81c3ca0e53974be2688cdb954732c9862e173ffffffffffffffffffffffffffffffffffffffff16600360009054906101000a900473ffffffffffffffffffffffffffffffffffffffff1673ffffffffffffffffffffffffffffffffffffffff16146133675773933daea3a5995fb94b14a7696a5f3ffd7b1e385a73ffffffffffffffffffffffffffffffffffffffff166338ed17398260006009306131b4610258426138ef90919063ffffffff16565b6040518663ffffffff1660e01b815260040180868152602001858152602001806020018473ffffffffffffffffffffffffffffffffffffffff168152602001838152602001828103825285818154815260200191508054801561326c57602002820191906000526020600020905b8160009054906101000a900473ffffffffffffffffffffffffffffffffffffffff1673ffffffffffffffffffffffffffffffffffffffff1681526020019060010190808311613222575b50509650505050505050600060405180830381600087803b15801561329057600080fd5b505af11580156132a4573d6000803e3d6000fd5b505050506040513d6000823e3d601f19601f8201168201806040525060208110156132ce57600080fd5b81019080805160405193929190846401000000008211156132ee57600080fd5b8382019150602082018581111561330457600080fd5b825186602082028301116401000000008211171561332157600080fd5b8083526020830192505050908051906020019060200280838360005b8381101561335857808201518184015260208101905061333d565b50505050905001604052505050505b73790be81c3ca0e53974be2688cdb954732c9862e173ffffffffffffffffffffffffffffffffffffffff16600460009054906101000a900473ffffffffffffffffffffffffffffffffffffffff1673ffffffffffffffffffffffffffffffffffffffff16146135ce5773933daea3a5995fb94b14a7696a5f3ffd7b1e385a73ffffffffffffffffffffffffffffffffffffffff166338ed1739826000600a3061341b610258426138ef90919063ffffffff16565b6040518663ffffffff1660e01b815260040180868152602001858152602001806020018473ffffffffffffffffffffffffffffffffffffffff16815260200183815260200182810382528581815481526020019150805480156134d357602002820191906000526020600020905b8160009054906101000a900473ffffffffffffffffffffffffffffffffffffffff1673ffffffffffffffffffffffffffffffffffffffff1681526020019060010190808311613489575b50509650505050505050600060405180830381600087803b1580156134f757600080fd5b505af115801561350b573d6000803e3d6000fd5b505050506040513d6000823e3d601f19601f82011682018060405250602081101561353557600080fd5b810190808051604051939291908464010000000082111561355557600080fd5b8382019150602082018581111561356b57600080fd5b825186602082028301116401000000008211171561358857600080fd5b8083526020830192505050908051906020019060200280838360005b838110156135bf5780820151818401526020810190506135a4565b50505050905001604052505050505b6000600360009054906101000a900473ffffffffffffffffffffffffffffffffffffffff1673ffffffffffffffffffffffffffffffffffffffff166370a08231306040518263ffffffff1660e01b8152600401808273ffffffffffffffffffffffffffffffffffffffff16815260200191505060206040518083038186803b15801561365957600080fd5b505afa15801561366d573d6000803e3d6000fd5b505050506040513d602081101561368357600080fd5b810190808051906020019092919050505090506000600460009054906101000a900473ffffffffffffffffffffffffffffffffffffffff1673ffffffffffffffffffffffffffffffffffffffff166370a08231306040518263ffffffff1660e01b8152600401808273ffffffffffffffffffffffffffffffffffffffff16815260200191505060206040518083038186803b15801561372157600080fd5b505afa158015613735573d6000803e3d6000fd5b505050506040513d602081101561374b57600080fd5b8101908080519060200190929190505050905073933daea3a5995fb94b14a7696a5f3ffd7b1e385a73ffffffffffffffffffffffffffffffffffffffff1663e8e33700600360009054906101000a900473ffffffffffffffffffffffffffffffffffffffff16600460009054906101000a900473ffffffffffffffffffffffffffffffffffffffff168585600180306137ef610258426138ef90919063ffffffff16565b6040518963ffffffff1660e01b8152600401808973ffffffffffffffffffffffffffffffffffffffff1681526020018873ffffffffffffffffffffffffffffffffffffffff1681526020018781526020018681526020018581526020018481526020018373ffffffffffffffffffffffffffffffffffffffff16815260200182815260200198505050505050505050606060405180830381600087803b15801561389857600080fd5b505af11580156138ac573d6000803e3d6000fd5b505050506040513d60608110156138c257600080fd5b81019080805190602001909291908051906020019092919080519060200190929190505050505050505050565b60008082840190508381101561396d576040517f08c379a000000000000000000000000000000000000000000000000000000000815260040180806020018281038252601b8152602001807f536166654d6174683a206164646974696f6e206f766572666c6f77000000000081525060200191505060405180910390fd5b8091505092915050565b600060149054906101000a900460ff16156139fa576040517f08c379a00000000000000000000000000000000000000000000000000000000081526004018080602001828103825260108152602001807f5061757361626c653a207061757365640000000000000000000000000000000081525060200191505060405180910390fd5b6001600060146101000a81548160ff0219169083151502179055507f62e78cea01bee320cd4e420270b5ea74000d11b0c9f74754ebdbfc544b05a258613a3e612856565b604051808273ffffffffffffffffffffffffffffffffffffffff16815260200191505060405180910390a1565b613a8a8273ffffffffffffffffffffffffffffffffffffffff1661264f565b613afc576040517f08c379a000000000000000000000000000000000000000000000000000000000815260040180806020018281038252601f8152602001807f5361666545524332303a2063616c6c20746f206e6f6e2d636f6e74726163740081525060200191505060405180910390fd5b600060608373ffffffffffffffffffffffffffffffffffffffff16836040518082805190602001908083835b60208310613b4b5780518252602082019150602081019050602083039250613b28565b6001836020036101000a0380198251168184511680821785525050505050509050019150506000604051808303816000865af19150503d8060008114613bad576040519150601f19603f3d011682016040523d82523d6000602084013e613bb2565b606091505b509150915081613c2a576040517f08c379a00000000000000000000000000000000000000000000000000000000081526004018080602001828103825260208152602001807f5361666545524332303a206c6f772d6c6576656c2063616c6c206661696c656481525060200191505060405180910390fd5b600081511115613cb057808060200190516020811015613c4957600080fd5b8101908080519060200190929190505050613caf576040517f08c379a000000000000000000000000000000000000000000000000000000000815260040180806020018281038252602a815260200180613e84602a913960400191505060405180910390fd5b5b50505050565b6000838311158290613d63576040517f08c379a00000000000000000000000000000000000000000000000000000000081526004018080602001828103825283818151815260200191508051906020019080838360005b83811015613d28578082015181840152602081019050613d0d565b50505050905090810190601f168015613d555780820380516001836020036101000a031916815260200191505b509250505060405180910390fd5b5060008385039050809150509392505050565b60008083118290613e22576040517f08c379a00000000000000000000000000000000000000000000000000000000081526004018080602001828103825283818151815260200191508051906020019080838360005b83811015613de7578082015181840152602081019050613dcc565b50505050905090810190601f168015613e145780820380516001836020036101000a031916815260200191505b509250505060405180910390fd5b506000838581613e2e57fe5b04905080915050939250505056fe4f776e61626c653a206e6577206f776e657220697320746865207a65726f2061646472657373536166654d6174683a206d756c7469706c69636174696f6e206f766572666c6f775361666545524332303a204552433230206f7065726174696f6e20646964206e6f7420737563636565645361666545524332303a20617070726f76652066726f6d206e6f6e2d7a65726f20746f206e6f6e2d7a65726f20616c6c6f77616e6365a2646970667358221220a3e1b268fba87db04929ea0330fa5c27ac6b799d6ef73c71b37913dd5bd91e9264736f6c634300060c00335361666545524332303a204552433230206f7065726174696f6e20646964206e6f7420737563636565645361666545524332303a20617070726f76652066726f6d206e6f6e2d7a65726f20746f206e6f6e2d7a65726f20616c6c6f77616e6365",
  "immutableReferences": {},
  "source": "// SPDX-License-Identifier: MIT\npragma solidity ^0.6.0;\n\nimport \"@openzeppelin/contracts/GSN/Context.sol\";\nimport \"@openzeppelin/contracts/access/Ownable.sol\";\nimport \"@openzeppelin/contracts/token/ERC20/IERC20.sol\";\nimport \"@openzeppelin/contracts/math/SafeMath.sol\";\nimport \"@openzeppelin/contracts/utils/Address.sol\";\nimport \"@openzeppelin/contracts/token/ERC20/ERC20.sol\";\nimport \"@openzeppelin/contracts/token/ERC20/SafeERC20.sol\";\nimport \"@openzeppelin/contracts/utils/Pausable.sol\";\n\nimport \"../interfaces/IUniswapRouterETH.sol\";\nimport \"../interfaces/IUniswapV2Pair.sol\";\nimport \"../interfaces/IMasterChef.sol\";\n\n\n/**\n * @dev Implementation of a strategy to get yields from farming LP Pools in\n * CafeSwap.\n * This strat is currently compatible with all LP pools.\n */\ncontract StrategyCafeLP is Ownable, Pausable {\n    using SafeERC20 for IERC20;\n    using Address for address;\n    using SafeMath for uint256;\n\n    /**\n     * @dev Tokens Used:\n     * {wbnb, busd} - Required for liquidity routing when doing swaps.\n     * {rewardToken} - Token generated by staking our funds.\n     * {brew} - BREW token to buy and burn.\n     * {lpPair} - Token that the strategy maximizes. The same token that users deposit in the vault.\n     * {lpToken0, lpToken1} - Tokens that the strategy maximizes. IUniswapV2Pair tokens\n     */\n    address constant public wbnb = address(0xbb4CdB9CBd36B01bD1cBaEBF2De08d9173bc095c);\n    address constant public busd = address(0xe9e7CEA3DedcA5984780Bafc599bD69ADd087D56);\n    address constant public rewardToken = address(0x790Be81C3cA0e53974bE2688cDb954732C9862e1);\n    address constant public brew = address(0x790Be81C3cA0e53974bE2688cDb954732C9862e1);\n    address public burnerAddress;\n    address public lpPair;\n    address public lpToken0;\n    address public lpToken1;\n\n    /**\n     * @dev Third Party Contracts:\n     * {unirouter} - CafeSwap unirouter\n     * {masterchef} - MasterChef contract\n     * {poolId} - MasterChef pool id\n     */\n    address constant public unirouter  = address(0x933DAea3a5995Fb94b14A7696a5F3ffD7B1E385A);\n    address constant public masterchef = address(0xc772955c33088a97D56d0BBf473d05267bC4feBB);\n    uint8 public poolId;\n\n    /**\n     * @dev Coffee Contracts:\n     * {vault} - Address of the vault that controls the strategy's funds.\n     * {strategist} - Address of the strategy author/deployer where strategist fee will go.\n     */\n    address public vault;\n    address public strategist;\n\n    /**\n     * @dev Distribution of fees earned. This allocations relative to the % implemented on doSplit().\n     * Current implementation separates 2.5% for fees.\n     *\n     * {BURN_FEE} - 1.5% goes to buying BREW and burning it.\n     * {CALL_FEE} - 0.5% goes to whoever executes the harvest function as gas subsidy.\n     * {STRATEGIST_FEE} - 0.5% goes to the strategist.\n     * {MAX_FEE} - Aux const used to safely calc the correct amounts.\n     *\n     * {WITHDRAWAL_FEE} - Fee taxed when a user withdraws funds. 10 === 0.1% fee.\n     * {WITHDRAWAL_MAX} - Aux const used to safely calc the correct amounts.\n     */\n    uint constant public BURN_FEE    = 600;\n    uint constant public CALL_FEE       = 200;\n    uint constant public STRATEGIST_FEE = 200;\n    uint constant public MAX_FEE        = 1000;\n\n    uint constant public WITHDRAWAL_FEE = 10;\n    uint constant public WITHDRAWAL_MAX = 10000;\n\n    /**\n     * @dev Routes we take to swap tokens using PancakeSwap.\n     * {rewardTokenToWbnbRoute} - Route we take to get from {rewardToken} into {wbnb}.\n     * {wbnbToBrewRoute} - Route we take to get from {wbnb} into {brew}.\n     * {rewardTokenToLp0Route} - Route we take to get from {rewardToken} into {lpToken0}.\n     * {rewardTokenToLp1Route} - Route we take to get from {rewardToken} into {lpToken1}.\n     */\n    address[] public rewardTokenToWbnbRoute = [rewardToken, wbnb];\n    address[] public wbnbToBrewRoute = [wbnb, brew];\n    address[] public rewardTokenToLp0Route;\n    address[] public rewardTokenToLp1Route;\n\n    /**\n     * @dev Event that is fired each time someone harvests the strat.\n     */\n    event StratHarvest(address indexed harvester);\n\n    /**\n     * @dev Initializes the strategy with the token to maximize.\n     */\n    constructor(address _lpPair, uint8 _poolId, address _vault, address _strategist, address _burnerAddress) public {\n        lpPair = _lpPair;\n        lpToken0 = IUniswapV2Pair(lpPair).token0();\n        lpToken1 = IUniswapV2Pair(lpPair).token1();\n        poolId = _poolId;\n        vault = _vault;\n        strategist = _strategist;\n        burnerAddress = _burnerAddress;\n\n        if (lpToken0 == wbnb) {\n            rewardTokenToLp0Route = [rewardToken, wbnb];\n        } else if (lpToken0 == busd) {\n            rewardTokenToLp0Route = [rewardToken, busd];\n        } else if (lpToken0 != rewardToken) {\n            rewardTokenToLp0Route = [rewardToken, wbnb, lpToken0];\n        }\n\n        if (lpToken1 == wbnb) {\n            rewardTokenToLp1Route = [rewardToken, wbnb];\n        } else if (lpToken1 == busd) {\n            rewardTokenToLp1Route = [rewardToken, busd];\n        } else if (lpToken1 != rewardToken) {\n            rewardTokenToLp1Route = [rewardToken, wbnb, lpToken1];\n        }\n\n        IERC20(lpPair).safeApprove(masterchef, uint(-1));\n        IERC20(rewardToken).safeApprove(unirouter, uint(-1));\n        IERC20(wbnb).safeApprove(unirouter, uint(-1));\n\n        IERC20(lpToken0).safeApprove(unirouter, 0);\n        IERC20(lpToken0).safeApprove(unirouter, uint(-1));\n\n        IERC20(lpToken1).safeApprove(unirouter, 0);\n        IERC20(lpToken1).safeApprove(unirouter, uint(-1));\n    }\n\n    /**\n     * @dev Function that puts the funds to work.\n     * It gets called whenever someone deposits in the strategy's vault contract.\n     * It deposits {lpPair} in the MasterChef to farm {rewardToken}\n     */\n    function deposit() public whenNotPaused {\n        uint256 pairBal = IERC20(lpPair).balanceOf(address(this));\n\n        if (pairBal > 0) {\n            IMasterChef(masterchef).deposit(poolId, pairBal);\n        }\n    }\n\n    /**\n     * @dev Withdraws funds and sends them back to the vault.\n     * It withdraws {lpPair} from the MasterChef.\n     * The available {lpPair} minus fees is returned to the vault.\n     */\n    function withdraw(uint256 _amount) external {\n        require(msg.sender == vault, \"!vault\");\n\n        uint256 pairBal = IERC20(lpPair).balanceOf(address(this));\n\n        if (pairBal < _amount) {\n            IMasterChef(masterchef).withdraw(poolId, _amount.sub(pairBal));\n            pairBal = IERC20(lpPair).balanceOf(address(this));\n        }\n\n        if (pairBal > _amount) {\n            pairBal = _amount;\n        }\n\n        uint256 withdrawalFee = pairBal.mul(WITHDRAWAL_FEE).div(WITHDRAWAL_MAX);\n        IERC20(lpPair).safeTransfer(vault, pairBal.sub(withdrawalFee));\n    }\n\n    /**\n     * @dev Core function of the strat, in charge of collecting and re-investing rewards.\n     * 1. It claims rewards from the MasterChef.\n     * 2. It charges the system fees to simplify the split.\n     * 3. It swaps the {rewardToken} token for {lpToken0} & {lpToken1}\n     * 4. Adds more liquidity to the pool.\n     * 5. It deposits the new LP tokens.\n     */\n    function harvest() external whenNotPaused {\n        require(!Address.isContract(msg.sender), \"!contract\");\n        IMasterChef(masterchef).deposit(poolId, 0);\n        chargeFees();\n        addLiquidity();\n        deposit();\n\n        emit StratHarvest(msg.sender);\n    }\n\n    /**\n     * @dev Takes out 2.5% as system fees from the rewards. \n     * 0.5% -> Call Fee\n     * 0.5% -> Strategist fee\n     * 1.5% -> BURN BREW\n     */\n    function chargeFees() internal {\n        uint256 toWbnb = IERC20(rewardToken).balanceOf(address(this)).mul(25).div(1000);\n        IUniswapRouterETH(unirouter).swapExactTokensForTokens(\n          toWbnb,\n          0,\n          rewardTokenToWbnbRoute,\n          address(this),\n          now.add(600));\n\n        uint256 wbnbBal = IERC20(wbnb).balanceOf(address(this));\n\n        uint256 callFee = wbnbBal.mul(CALL_FEE).div(MAX_FEE);\n        IERC20(wbnb).safeTransfer(msg.sender, callFee);\n\n        uint256 burnFee = wbnbBal.mul(BURN_FEE).div(MAX_FEE);\n        IUniswapRouterETH(unirouter).swapExactTokensForTokens(\n          burnFee,\n          0,\n          wbnbToBrewRoute,\n          burnerAddress,\n          now.add(600));\n\n        uint256 strategistFee = wbnbBal.mul(STRATEGIST_FEE).div(MAX_FEE);\n        IERC20(wbnb).safeTransfer(strategist, strategistFee);\n    }\n\n    /**\n     * @dev Swaps {rewardToken} for {lpToken0}, {lpToken1} & {wbnb} using PancakeSwap.\n     */\n    function addLiquidity() internal {\n        uint256 rewardTokenHalf = IERC20(rewardToken).balanceOf(address(this)).div(2);\n\n        if (lpToken0 != rewardToken) {\n            IUniswapRouterETH(unirouter).swapExactTokensForTokens(rewardTokenHalf, 0, rewardTokenToLp0Route, address(this), now.add(600));\n        }\n\n        if (lpToken1 != rewardToken) {\n            IUniswapRouterETH(unirouter).swapExactTokensForTokens(rewardTokenHalf, 0, rewardTokenToLp1Route, address(this), now.add(600));\n        }\n\n        uint256 lp0Bal = IERC20(lpToken0).balanceOf(address(this));\n        uint256 lp1Bal = IERC20(lpToken1).balanceOf(address(this));\n        IUniswapRouterETH(unirouter).addLiquidity(lpToken0, lpToken1, lp0Bal, lp1Bal, 1, 1, address(this), now.add(600));\n    }\n\n    /**\n     * @dev Function to calculate the total underlaying {lpPair} held by the strat.\n     * It takes into account both the funds in hand, as the funds allocated in the MasterChef.\n     */\n    function balanceOf() public view returns (uint256) {\n        return balanceOfLpPair().add(balanceOfPool());\n    }\n\n    /**\n     * @dev It calculates how much {lpPair} the contract holds.\n     */\n    function balanceOfLpPair() public view returns (uint256) {\n        return IERC20(lpPair).balanceOf(address(this));\n    }\n\n    /**\n     * @dev It calculates how much {lpPair} the strategy has allocated in the MasterChef\n     */\n    function balanceOfPool() public view returns (uint256) {\n        (uint256 _amount, ) = IMasterChef(masterchef).userInfo(poolId, address(this));\n        return _amount;\n    }\n\n    /**\n     * @dev Function that has to be called as part of strat migration. It sends all the available funds back to the \n     * vault, ready to be migrated to the new strat.\n     */\n    function retireStrat() external {\n        require(msg.sender == vault, \"!vault\");\n\n        IMasterChef(masterchef).emergencyWithdraw(poolId);\n\n        uint256 pairBal = IERC20(lpPair).balanceOf(address(this));\n        IERC20(lpPair).transfer(vault, pairBal);\n    }\n\n    /**\n     * @dev Pauses deposits. Withdraws all funds from the MasterChef, leaving rewards behind\n     */\n    function panic() public onlyOwner {\n        pause();\n        IMasterChef(masterchef).emergencyWithdraw(poolId);\n    }\n\n    /**\n     * @dev Pauses the strat.\n     */\n    function pause() public onlyOwner {\n        _pause();\n\n        IERC20(lpPair).safeApprove(masterchef, 0);\n        IERC20(rewardToken).safeApprove(unirouter, 0);\n        IERC20(wbnb).safeApprove(unirouter, 0);\n        IERC20(lpToken0).safeApprove(unirouter, 0);\n        IERC20(lpToken1).safeApprove(unirouter, 0);\n    }\n\n    /**\n     * @dev Unpauses the strat.\n     */\n    function unpause() external onlyOwner {\n        _unpause();\n\n        IERC20(lpPair).safeApprove(masterchef, uint(-1));\n        IERC20(rewardToken).safeApprove(unirouter, uint(-1));\n        IERC20(wbnb).safeApprove(unirouter, uint(-1));\n\n        IERC20(lpToken0).safeApprove(unirouter, 0);\n        IERC20(lpToken0).safeApprove(unirouter, uint(-1));\n\n        IERC20(lpToken1).safeApprove(unirouter, 0);\n        IERC20(lpToken1).safeApprove(unirouter, uint(-1));\n    }\n\n    /**\n     * @dev Updates address where strategist fee earnings will go.\n     * @param _strategist new strategist address.\n     */\n    function setStrategist(address _strategist) external {\n        require(msg.sender == strategist, \"!strategist\");\n        strategist = _strategist;\n    }\n}",
  "sourcePath": "/home/nuclearvodka/Projects/CafeSwap/cafeswap-vaults/contracts/Strategies/CafeLP.sol",
  "compiler": {
    "name": "solc",
    "version": "0.6.12+commit.27d51765.Emscripten.clang"
  },
  "schemaVersion": "3.3.4",
  "updatedAt": "2021-03-29T20:03:13.333Z",
  "devdoc": {
    "details": "Implementation of a strategy to get yields from farming LP Pools in CafeSwap. This strat is currently compatible with all LP pools.",
    "events": {
      "StratHarvest(address)": {
        "details": "Event that is fired each time someone harvests the strat."
      }
    },
    "kind": "dev",
    "methods": {
      "balanceOf()": {
        "details": "Function to calculate the total underlaying {lpPair} held by the strat. It takes into account both the funds in hand, as the funds allocated in the MasterChef."
      },
      "balanceOfLpPair()": {
        "details": "It calculates how much {lpPair} the contract holds."
      },
      "balanceOfPool()": {
        "details": "It calculates how much {lpPair} the strategy has allocated in the MasterChef"
      },
      "constructor": {
        "details": "Initializes the strategy with the token to maximize."
      },
      "deposit()": {
        "details": "Function that puts the funds to work. It gets called whenever someone deposits in the strategy's vault contract. It deposits {lpPair} in the MasterChef to farm {rewardToken}"
      },
      "harvest()": {
        "details": "Core function of the strat, in charge of collecting and re-investing rewards. 1. It claims rewards from the MasterChef. 2. It charges the system fees to simplify the split. 3. It swaps the {rewardToken} token for {lpToken0} & {lpToken1} 4. Adds more liquidity to the pool. 5. It deposits the new LP tokens."
      },
      "owner()": {
        "details": "Returns the address of the current owner."
      },
      "panic()": {
        "details": "Pauses deposits. Withdraws all funds from the MasterChef, leaving rewards behind"
      },
      "pause()": {
        "details": "Pauses the strat."
      },
      "paused()": {
        "details": "Returns true if the contract is paused, and false otherwise."
      },
      "renounceOwnership()": {
        "details": "Leaves the contract without owner. It will not be possible to call `onlyOwner` functions anymore. Can only be called by the current owner. NOTE: Renouncing ownership will leave the contract without an owner, thereby removing any functionality that is only available to the owner."
      },
      "retireStrat()": {
        "details": "Function that has to be called as part of strat migration. It sends all the available funds back to the  vault, ready to be migrated to the new strat."
      },
      "setStrategist(address)": {
        "details": "Updates address where strategist fee earnings will go.",
        "params": {
          "_strategist": "new strategist address."
        }
      },
      "transferOwnership(address)": {
        "details": "Transfers ownership of the contract to a new account (`newOwner`). Can only be called by the current owner."
      },
      "unpause()": {
        "details": "Unpauses the strat."
      },
      "withdraw(uint256)": {
        "details": "Withdraws funds and sends them back to the vault. It withdraws {lpPair} from the MasterChef. The available {lpPair} minus fees is returned to the vault."
      }
    },
    "stateVariables": {
      "BURN_FEE": {
        "details": "Distribution of fees earned. This allocations relative to the % implemented on doSplit(). Current implementation separates 2.5% for fees. {BURN_FEE} - 1.5% goes to buying BREW and burning it. {CALL_FEE} - 0.5% goes to whoever executes the harvest function as gas subsidy. {STRATEGIST_FEE} - 0.5% goes to the strategist. {MAX_FEE} - Aux const used to safely calc the correct amounts. {WITHDRAWAL_FEE} - Fee taxed when a user withdraws funds. 10 === 0.1% fee. {WITHDRAWAL_MAX} - Aux const used to safely calc the correct amounts."
      },
      "rewardTokenToWbnbRoute": {
        "details": "Routes we take to swap tokens using PancakeSwap. {rewardTokenToWbnbRoute} - Route we take to get from {rewardToken} into {wbnb}. {wbnbToBrewRoute} - Route we take to get from {wbnb} into {brew}. {rewardTokenToLp0Route} - Route we take to get from {rewardToken} into {lpToken0}. {rewardTokenToLp1Route} - Route we take to get from {rewardToken} into {lpToken1}."
      },
      "unirouter": {
        "details": "Third Party Contracts: {unirouter} - CafeSwap unirouter {masterchef} - MasterChef contract {poolId} - MasterChef pool id"
      },
      "vault": {
        "details": "Coffee Contracts: {vault} - Address of the vault that controls the strategy's funds. {strategist} - Address of the strategy author/deployer where strategist fee will go."
      },
      "wbnb": {
        "details": "Tokens Used: {wbnb, busd} - Required for liquidity routing when doing swaps. {rewardToken} - Token generated by staking our funds. {brew} - BREW token to buy and burn. {lpPair} - Token that the strategy maximizes. The same token that users deposit in the vault. {lpToken0, lpToken1} - Tokens that the strategy maximizes. IUniswapV2Pair tokens"
      }
    },
    "version": 1
  },
  "userdoc": {
    "kind": "user",
    "methods": {},
    "version": 1
  }
}