{
  "contractName": "StrategyCafeLP",
  "abi": [
    {
      "inputs": [
        {
          "internalType": "address",
          "name": "_lpPair",
          "type": "address"
        },
        {
          "internalType": "uint8",
          "name": "_poolId",
          "type": "uint8"
        },
        {
          "internalType": "address",
          "name": "_vault",
          "type": "address"
        },
        {
          "internalType": "address",
          "name": "_strategist",
          "type": "address"
        }
      ],
      "stateMutability": "nonpayable",
      "type": "constructor"
    },
    {
      "anonymous": false,
      "inputs": [
        {
          "indexed": true,
          "internalType": "address",
          "name": "previousOwner",
          "type": "address"
        },
        {
          "indexed": true,
          "internalType": "address",
          "name": "newOwner",
          "type": "address"
        }
      ],
      "name": "OwnershipTransferred",
      "type": "event"
    },
    {
      "anonymous": false,
      "inputs": [
        {
          "indexed": false,
          "internalType": "address",
          "name": "account",
          "type": "address"
        }
      ],
      "name": "Paused",
      "type": "event"
    },
    {
      "anonymous": false,
      "inputs": [
        {
          "indexed": true,
          "internalType": "address",
          "name": "harvester",
          "type": "address"
        }
      ],
      "name": "StratHarvest",
      "type": "event"
    },
    {
      "anonymous": false,
      "inputs": [
        {
          "indexed": false,
          "internalType": "address",
          "name": "account",
          "type": "address"
        }
      ],
      "name": "Unpaused",
      "type": "event"
    },
    {
      "inputs": [],
      "name": "BURN_FEE",
      "outputs": [
        {
          "internalType": "uint256",
          "name": "",
          "type": "uint256"
        }
      ],
      "stateMutability": "view",
      "type": "function"
    },
    {
      "inputs": [],
      "name": "CALL_FEE",
      "outputs": [
        {
          "internalType": "uint256",
          "name": "",
          "type": "uint256"
        }
      ],
      "stateMutability": "view",
      "type": "function"
    },
    {
      "inputs": [],
      "name": "MAX_FEE",
      "outputs": [
        {
          "internalType": "uint256",
          "name": "",
          "type": "uint256"
        }
      ],
      "stateMutability": "view",
      "type": "function"
    },
    {
      "inputs": [],
      "name": "STRATEGIST_FEE",
      "outputs": [
        {
          "internalType": "uint256",
          "name": "",
          "type": "uint256"
        }
      ],
      "stateMutability": "view",
      "type": "function"
    },
    {
      "inputs": [],
      "name": "WITHDRAWAL_FEE",
      "outputs": [
        {
          "internalType": "uint256",
          "name": "",
          "type": "uint256"
        }
      ],
      "stateMutability": "view",
      "type": "function"
    },
    {
      "inputs": [],
      "name": "WITHDRAWAL_MAX",
      "outputs": [
        {
          "internalType": "uint256",
          "name": "",
          "type": "uint256"
        }
      ],
      "stateMutability": "view",
      "type": "function"
    },
    {
      "inputs": [],
      "name": "brew",
      "outputs": [
        {
          "internalType": "address",
          "name": "",
          "type": "address"
        }
      ],
      "stateMutability": "view",
      "type": "function"
    },
    {
      "inputs": [],
      "name": "busd",
      "outputs": [
        {
          "internalType": "address",
          "name": "",
          "type": "address"
        }
      ],
      "stateMutability": "view",
      "type": "function"
    },
    {
      "inputs": [],
      "name": "lpPair",
      "outputs": [
        {
          "internalType": "address",
          "name": "",
          "type": "address"
        }
      ],
      "stateMutability": "view",
      "type": "function"
    },
    {
      "inputs": [],
      "name": "lpToken0",
      "outputs": [
        {
          "internalType": "address",
          "name": "",
          "type": "address"
        }
      ],
      "stateMutability": "view",
      "type": "function"
    },
    {
      "inputs": [],
      "name": "lpToken1",
      "outputs": [
        {
          "internalType": "address",
          "name": "",
          "type": "address"
        }
      ],
      "stateMutability": "view",
      "type": "function"
    },
    {
      "inputs": [],
      "name": "masterchef",
      "outputs": [
        {
          "internalType": "address",
          "name": "",
          "type": "address"
        }
      ],
      "stateMutability": "view",
      "type": "function"
    },
    {
      "inputs": [],
      "name": "owner",
      "outputs": [
        {
          "internalType": "address",
          "name": "",
          "type": "address"
        }
      ],
      "stateMutability": "view",
      "type": "function"
    },
    {
      "inputs": [],
      "name": "paused",
      "outputs": [
        {
          "internalType": "bool",
          "name": "",
          "type": "bool"
        }
      ],
      "stateMutability": "view",
      "type": "function"
    },
    {
      "inputs": [],
      "name": "poolId",
      "outputs": [
        {
          "internalType": "uint8",
          "name": "",
          "type": "uint8"
        }
      ],
      "stateMutability": "view",
      "type": "function"
    },
    {
      "inputs": [],
      "name": "renounceOwnership",
      "outputs": [],
      "stateMutability": "nonpayable",
      "type": "function"
    },
    {
      "inputs": [],
      "name": "rewardToken",
      "outputs": [
        {
          "internalType": "address",
          "name": "",
          "type": "address"
        }
      ],
      "stateMutability": "view",
      "type": "function"
    },
    {
      "inputs": [
        {
          "internalType": "uint256",
          "name": "",
          "type": "uint256"
        }
      ],
      "name": "rewardTokenToLp0Route",
      "outputs": [
        {
          "internalType": "address",
          "name": "",
          "type": "address"
        }
      ],
      "stateMutability": "view",
      "type": "function"
    },
    {
      "inputs": [
        {
          "internalType": "uint256",
          "name": "",
          "type": "uint256"
        }
      ],
      "name": "rewardTokenToLp1Route",
      "outputs": [
        {
          "internalType": "address",
          "name": "",
          "type": "address"
        }
      ],
      "stateMutability": "view",
      "type": "function"
    },
    {
      "inputs": [
        {
          "internalType": "uint256",
          "name": "",
          "type": "uint256"
        }
      ],
      "name": "rewardTokenToWbnbRoute",
      "outputs": [
        {
          "internalType": "address",
          "name": "",
          "type": "address"
        }
      ],
      "stateMutability": "view",
      "type": "function"
    },
    {
      "inputs": [],
      "name": "strategist",
      "outputs": [
        {
          "internalType": "address",
          "name": "",
          "type": "address"
        }
      ],
      "stateMutability": "view",
      "type": "function"
    },
    {
      "inputs": [
        {
          "internalType": "address",
          "name": "newOwner",
          "type": "address"
        }
      ],
      "name": "transferOwnership",
      "outputs": [],
      "stateMutability": "nonpayable",
      "type": "function"
    },
    {
      "inputs": [],
      "name": "unirouter",
      "outputs": [
        {
          "internalType": "address",
          "name": "",
          "type": "address"
        }
      ],
      "stateMutability": "view",
      "type": "function"
    },
    {
      "inputs": [],
      "name": "vault",
      "outputs": [
        {
          "internalType": "address",
          "name": "",
          "type": "address"
        }
      ],
      "stateMutability": "view",
      "type": "function"
    },
    {
      "inputs": [],
      "name": "wbnb",
      "outputs": [
        {
          "internalType": "address",
          "name": "",
          "type": "address"
        }
      ],
      "stateMutability": "view",
      "type": "function"
    },
    {
      "inputs": [
        {
          "internalType": "uint256",
          "name": "",
          "type": "uint256"
        }
      ],
      "name": "wbnbToBrewRoute",
      "outputs": [
        {
          "internalType": "address",
          "name": "",
          "type": "address"
        }
      ],
      "stateMutability": "view",
      "type": "function"
    },
    {
      "inputs": [],
      "name": "deposit",
      "outputs": [],
      "stateMutability": "nonpayable",
      "type": "function"
    },
    {
      "inputs": [
        {
          "internalType": "uint256",
          "name": "_amount",
          "type": "uint256"
        }
      ],
      "name": "withdraw",
      "outputs": [],
      "stateMutability": "nonpayable",
      "type": "function"
    },
    {
      "inputs": [],
      "name": "harvest",
      "outputs": [],
      "stateMutability": "nonpayable",
      "type": "function"
    },
    {
      "inputs": [],
      "name": "balanceOf",
      "outputs": [
        {
          "internalType": "uint256",
          "name": "",
          "type": "uint256"
        }
      ],
      "stateMutability": "view",
      "type": "function"
    },
    {
      "inputs": [],
      "name": "balanceOfLpPair",
      "outputs": [
        {
          "internalType": "uint256",
          "name": "",
          "type": "uint256"
        }
      ],
      "stateMutability": "view",
      "type": "function"
    },
    {
      "inputs": [],
      "name": "balanceOfPool",
      "outputs": [
        {
          "internalType": "uint256",
          "name": "",
          "type": "uint256"
        }
      ],
      "stateMutability": "view",
      "type": "function"
    },
    {
      "inputs": [],
      "name": "retireStrat",
      "outputs": [],
      "stateMutability": "nonpayable",
      "type": "function"
    },
    {
      "inputs": [],
      "name": "panic",
      "outputs": [],
      "stateMutability": "nonpayable",
      "type": "function"
    },
    {
      "inputs": [],
      "name": "pause",
      "outputs": [],
      "stateMutability": "nonpayable",
      "type": "function"
    },
    {
      "inputs": [],
      "name": "unpause",
      "outputs": [],
      "stateMutability": "nonpayable",
      "type": "function"
    },
    {
      "inputs": [
        {
          "internalType": "address",
          "name": "_strategist",
          "type": "address"
        }
      ],
      "name": "setStrategist",
      "outputs": [],
      "stateMutability": "nonpayable",
      "type": "function"
    }
  ],
  "bytecode": "0x6080604052604051806040016040528073790be81c3ca0e53974be2688cdb954732c9862e173ffffffffffffffffffffffffffffffffffffffff1673ffffffffffffffffffffffffffffffffffffffff16815260200173bb4cdb9cbd36b01bd1cbaebf2de08d9173bc095c73ffffffffffffffffffffffffffffffffffffffff1673ffffffffffffffffffffffffffffffffffffffff168152506006906002620000ab92919062001451565b50604051806040016040528073bb4cdb9cbd36b01bd1cbaebf2de08d9173bc095c73ffffffffffffffffffffffffffffffffffffffff1673ffffffffffffffffffffffffffffffffffffffff16815260200173790be81c3ca0e53974be2688cdb954732c9862e173ffffffffffffffffffffffffffffffffffffffff1673ffffffffffffffffffffffffffffffffffffffff1681525060079060026200015392919062001451565b503480156200016157600080fd5b50604051620054af380380620054af833981810160405260808110156200018757600080fd5b81019080805190602001909291908051906020019092919080519060200190929190805190602001909291905050506000620001c862000fc860201b60201c565b9050806000806101000a81548173ffffffffffffffffffffffffffffffffffffffff021916908373ffffffffffffffffffffffffffffffffffffffff1602179055508073ffffffffffffffffffffffffffffffffffffffff16600073ffffffffffffffffffffffffffffffffffffffff167f8be0079c531659141344cd1fd0a4f28419497f9722a3daafe3b4186f6b6457e060405160405180910390a35060008060146101000a81548160ff02191690831515021790555083600160006101000a81548173ffffffffffffffffffffffffffffffffffffffff021916908373ffffffffffffffffffffffffffffffffffffffff160217905550600160009054906101000a900473ffffffffffffffffffffffffffffffffffffffff1673ffffffffffffffffffffffffffffffffffffffff16630dfe16816040518163ffffffff1660e01b815260040160206040518083038186803b1580156200032a57600080fd5b505afa1580156200033f573d6000803e3d6000fd5b505050506040513d60208110156200035657600080fd5b8101908080519060200190929190505050600260006101000a81548173ffffffffffffffffffffffffffffffffffffffff021916908373ffffffffffffffffffffffffffffffffffffffff160217905550600160009054906101000a900473ffffffffffffffffffffffffffffffffffffffff1673ffffffffffffffffffffffffffffffffffffffff1663d21220a76040518163ffffffff1660e01b815260040160206040518083038186803b1580156200041057600080fd5b505afa15801562000425573d6000803e3d6000fd5b505050506040513d60208110156200043c57600080fd5b8101908080519060200190929190505050600360006101000a81548173ffffffffffffffffffffffffffffffffffffffff021916908373ffffffffffffffffffffffffffffffffffffffff16021790555082600360146101000a81548160ff021916908360ff16021790555081600460006101000a81548173ffffffffffffffffffffffffffffffffffffffff021916908373ffffffffffffffffffffffffffffffffffffffff16021790555080600560006101000a81548173ffffffffffffffffffffffffffffffffffffffff021916908373ffffffffffffffffffffffffffffffffffffffff16021790555073bb4cdb9cbd36b01bd1cbaebf2de08d9173bc095c73ffffffffffffffffffffffffffffffffffffffff16600260009054906101000a900473ffffffffffffffffffffffffffffffffffffffff1673ffffffffffffffffffffffffffffffffffffffff1614156200064357604051806040016040528073790be81c3ca0e53974be2688cdb954732c9862e173ffffffffffffffffffffffffffffffffffffffff1673ffffffffffffffffffffffffffffffffffffffff16815260200173bb4cdb9cbd36b01bd1cbaebf2de08d9173bc095c73ffffffffffffffffffffffffffffffffffffffff1673ffffffffffffffffffffffffffffffffffffffff1681525060089060026200063c92919062001451565b50620008c5565b73e9e7cea3dedca5984780bafc599bd69add087d5673ffffffffffffffffffffffffffffffffffffffff16600260009054906101000a900473ffffffffffffffffffffffffffffffffffffffff1673ffffffffffffffffffffffffffffffffffffffff1614156200075c57604051806040016040528073790be81c3ca0e53974be2688cdb954732c9862e173ffffffffffffffffffffffffffffffffffffffff1673ffffffffffffffffffffffffffffffffffffffff16815260200173e9e7cea3dedca5984780bafc599bd69add087d5673ffffffffffffffffffffffffffffffffffffffff1673ffffffffffffffffffffffffffffffffffffffff1681525060089060026200075592919062001451565b50620008c4565b73790be81c3ca0e53974be2688cdb954732c9862e173ffffffffffffffffffffffffffffffffffffffff16600260009054906101000a900473ffffffffffffffffffffffffffffffffffffffff1673ffffffffffffffffffffffffffffffffffffffff1614620008c357604051806060016040528073790be81c3ca0e53974be2688cdb954732c9862e173ffffffffffffffffffffffffffffffffffffffff1673ffffffffffffffffffffffffffffffffffffffff16815260200173bb4cdb9cbd36b01bd1cbaebf2de08d9173bc095c73ffffffffffffffffffffffffffffffffffffffff1673ffffffffffffffffffffffffffffffffffffffff168152602001600260009054906101000a900473ffffffffffffffffffffffffffffffffffffffff1673ffffffffffffffffffffffffffffffffffffffff1673ffffffffffffffffffffffffffffffffffffffff168152506008906003620008c1929190620014e0565b505b5b5b73bb4cdb9cbd36b01bd1cbaebf2de08d9173bc095c73ffffffffffffffffffffffffffffffffffffffff16600360009054906101000a900473ffffffffffffffffffffffffffffffffffffffff1673ffffffffffffffffffffffffffffffffffffffff161415620009de57604051806040016040528073790be81c3ca0e53974be2688cdb954732c9862e173ffffffffffffffffffffffffffffffffffffffff1673ffffffffffffffffffffffffffffffffffffffff16815260200173bb4cdb9cbd36b01bd1cbaebf2de08d9173bc095c73ffffffffffffffffffffffffffffffffffffffff1673ffffffffffffffffffffffffffffffffffffffff168152506009906002620009d792919062001451565b5062000c60565b73e9e7cea3dedca5984780bafc599bd69add087d5673ffffffffffffffffffffffffffffffffffffffff16600360009054906101000a900473ffffffffffffffffffffffffffffffffffffffff1673ffffffffffffffffffffffffffffffffffffffff16141562000af757604051806040016040528073790be81c3ca0e53974be2688cdb954732c9862e173ffffffffffffffffffffffffffffffffffffffff1673ffffffffffffffffffffffffffffffffffffffff16815260200173e9e7cea3dedca5984780bafc599bd69add087d5673ffffffffffffffffffffffffffffffffffffffff1673ffffffffffffffffffffffffffffffffffffffff16815250600990600262000af092919062001451565b5062000c5f565b73790be81c3ca0e53974be2688cdb954732c9862e173ffffffffffffffffffffffffffffffffffffffff16600360009054906101000a900473ffffffffffffffffffffffffffffffffffffffff1673ffffffffffffffffffffffffffffffffffffffff161462000c5e57604051806060016040528073790be81c3ca0e53974be2688cdb954732c9862e173ffffffffffffffffffffffffffffffffffffffff1673ffffffffffffffffffffffffffffffffffffffff16815260200173bb4cdb9cbd36b01bd1cbaebf2de08d9173bc095c73ffffffffffffffffffffffffffffffffffffffff1673ffffffffffffffffffffffffffffffffffffffff168152602001600360009054906101000a900473ffffffffffffffffffffffffffffffffffffffff1673ffffffffffffffffffffffffffffffffffffffff1673ffffffffffffffffffffffffffffffffffffffff16815250600990600362000c5c929190620014e0565b505b5b5b62000ce873c772955c33088a97d56d0bbf473d05267bc4febb7fffffffffffffffffffffffffffffffffffffffffffffffffffffffffffffffff600160009054906101000a900473ffffffffffffffffffffffffffffffffffffffff1673ffffffffffffffffffffffffffffffffffffffff1662000fd060201b62002425179092919060201c565b62000d627305ff2b0db69458a0750badebc4f9e13add608c7f7fffffffffffffffffffffffffffffffffffffffffffffffffffffffffffffffff73790be81c3ca0e53974be2688cdb954732c9862e173ffffffffffffffffffffffffffffffffffffffff1662000fd060201b62002425179092919060201c565b62000ddc7305ff2b0db69458a0750badebc4f9e13add608c7f7fffffffffffffffffffffffffffffffffffffffffffffffffffffffffffffffff73bb4cdb9cbd36b01bd1cbaebf2de08d9173bc095c73ffffffffffffffffffffffffffffffffffffffff1662000fd060201b62002425179092919060201c565b62000e457305ff2b0db69458a0750badebc4f9e13add608c7f6000600260009054906101000a900473ffffffffffffffffffffffffffffffffffffffff1673ffffffffffffffffffffffffffffffffffffffff1662000fd060201b62002425179092919060201c565b62000ecd7305ff2b0db69458a0750badebc4f9e13add608c7f7fffffffffffffffffffffffffffffffffffffffffffffffffffffffffffffffff600260009054906101000a900473ffffffffffffffffffffffffffffffffffffffff1673ffffffffffffffffffffffffffffffffffffffff1662000fd060201b62002425179092919060201c565b62000f367305ff2b0db69458a0750badebc4f9e13add608c7f6000600360009054906101000a900473ffffffffffffffffffffffffffffffffffffffff1673ffffffffffffffffffffffffffffffffffffffff1662000fd060201b62002425179092919060201c565b62000fbe7305ff2b0db69458a0750badebc4f9e13add608c7f7fffffffffffffffffffffffffffffffffffffffffffffffffffffffffffffffff600360009054906101000a900473ffffffffffffffffffffffffffffffffffffffff1673ffffffffffffffffffffffffffffffffffffffff1662000fd060201b62002425179092919060201c565b50505050620015ac565b600033905090565b6000811480620010a2575060008373ffffffffffffffffffffffffffffffffffffffff1663dd62ed3e30856040518363ffffffff1660e01b8152600401808373ffffffffffffffffffffffffffffffffffffffff1681526020018273ffffffffffffffffffffffffffffffffffffffff1681526020019250505060206040518083038186803b1580156200106357600080fd5b505afa15801562001078573d6000803e3d6000fd5b505050506040513d60208110156200108f57600080fd5b8101908080519060200190929190505050145b620010f9576040517f08c379a0000000000000000000000000000000000000000000000000000000008152600401808060200182810382526036815260200180620054796036913960400191505060405180910390fd5b6200119e8363095ea7b360e01b8484604051602401808373ffffffffffffffffffffffffffffffffffffffff16815260200182815260200192505050604051602081830303815290604052907bffffffffffffffffffffffffffffffffffffffffffffffffffffffff19166020820180517bffffffffffffffffffffffffffffffffffffffffffffffffffffffff8381831617835250505050620011a360201b60201c565b505050565b620011cf8273ffffffffffffffffffffffffffffffffffffffff166200140560201b620025ea1760201c565b62001242576040517f08c379a000000000000000000000000000000000000000000000000000000000815260040180806020018281038252601f8152602001807f5361666545524332303a2063616c6c20746f206e6f6e2d636f6e74726163740081525060200191505060405180910390fd5b600060608373ffffffffffffffffffffffffffffffffffffffff16836040518082805190602001908083835b602083106200129357805182526020820191506020810190506020830392506200126e565b6001836020036101000a0380198251168184511680821785525050505050509050019150506000604051808303816000865af19150503d8060008114620012f7576040519150601f19603f3d011682016040523d82523d6000602084013e620012fc565b606091505b50915091508162001375576040517f08c379a00000000000000000000000000000000000000000000000000000000081526004018080602001828103825260208152602001807f5361666545524332303a206c6f772d6c6576656c2063616c6c206661696c656481525060200191505060405180910390fd5b600081511115620013ff578080602001905160208110156200139657600080fd5b8101908080519060200190929190505050620013fe576040517f08c379a000000000000000000000000000000000000000000000000000000000815260040180806020018281038252602a8152602001806200544f602a913960400191505060405180910390fd5b5b50505050565b60008060007fc5d2460186f7233c927e7db2dcc703c0e500b653ca82273b7bfad8045d85a47060001b9050833f91508082141580156200144857506000801b8214155b92505050919050565b828054828255906000526020600020908101928215620014cd579160200282015b82811115620014cc5782518260006101000a81548173ffffffffffffffffffffffffffffffffffffffff021916908373ffffffffffffffffffffffffffffffffffffffff1602179055509160200191906001019062001472565b5b509050620014dc91906200156f565b5090565b8280548282559060005260206000209081019282156200155c579160200282015b828111156200155b5782518260006101000a81548173ffffffffffffffffffffffffffffffffffffffff021916908373ffffffffffffffffffffffffffffffffffffffff1602179055509160200191906001019062001501565b5b5090506200156b91906200156f565b5090565b5b80821115620015a857600081816101000a81549073ffffffffffffffffffffffffffffffffffffffff02191690555060010162001570565b5090565b613e9380620015bc6000396000f3fe608060405234801561001057600080fd5b50600436106102275760003560e01c8063722713f711610130578063c2351cdd116100b8578063f45bc2df1161007c578063f45bc2df14610749578063f7c618c1146107a1578063fb1db278146107d5578063fb61778714610809578063fbfa77cf1461081357610227565b8063c2351cdd14610641578063c7b9d5301461065f578063d0e30db0146106a3578063d0f2e818146106ad578063f2fde38b1461070557610227565b80638d72647e116100ff5780638d72647e1461057f5780638da5cb5b146105b3578063951d6d20146105e7578063a5d33ed514610605578063bc063e1a1461062357610227565b8063722713f7146105055780637d38ca65146105235780638456cb5914610541578063877562b61461054b57610227565b80634641257d116101b357806359a9d23a1161018257806359a9d23a146103f75780635c975abb1461044f5780635d51a47d1461046f5780635ee167c0146104c7578063715018a6146104fb57610227565b80634641257d146103a75780634700d305146103b1578063480df058146103bb57806354518b1a146103d957610227565b80632e1a7d4d116101fa5780632e1a7d4d146102e65780633ca5b234146103145780633e0dc34e146103485780633f4ba83a14610369578063452ed4f11461037357610227565b8063115880861461022c578063176f0c471461024a5780631fe4a6861461027e578063257ae0de146102b2575b600080fd5b610234610847565b6040518082815260200191505060405180910390f35b61025261092d565b604051808273ffffffffffffffffffffffffffffffffffffffff16815260200191505060405180910390f35b610286610945565b604051808273ffffffffffffffffffffffffffffffffffffffff16815260200191505060405180910390f35b6102ba61096b565b604051808273ffffffffffffffffffffffffffffffffffffffff16815260200191505060405180910390f35b610312600480360360208110156102fc57600080fd5b8101908080359060200190929190505050610983565b005b61031c610d46565b604051808273ffffffffffffffffffffffffffffffffffffffff16815260200191505060405180910390f35b610350610d5e565b604051808260ff16815260200191505060405180910390f35b610371610d71565b005b61037b611170565b604051808273ffffffffffffffffffffffffffffffffffffffff16815260200191505060405180910390f35b6103af611196565b005b6103b961138c565b005b6103c36114ef565b6040518082815260200191505060405180910390f35b6103e16114f5565b6040518082815260200191505060405180910390f35b6104236004803603602081101561040d57600080fd5b81019080803590602001909291905050506114fb565b604051808273ffffffffffffffffffffffffffffffffffffffff16815260200191505060405180910390f35b610457611537565b60405180821515815260200191505060405180910390f35b61049b6004803603602081101561048557600080fd5b810190808035906020019092919050505061154d565b604051808273ffffffffffffffffffffffffffffffffffffffff16815260200191505060405180910390f35b6104cf611589565b604051808273ffffffffffffffffffffffffffffffffffffffff16815260200191505060405180910390f35b6105036115af565b005b61050d611735565b6040518082815260200191505060405180910390f35b61052b61175d565b6040518082815260200191505060405180910390f35b610549611762565b005b610553611a02565b604051808273ffffffffffffffffffffffffffffffffffffffff16815260200191505060405180910390f35b610587611a28565b604051808273ffffffffffffffffffffffffffffffffffffffff16815260200191505060405180910390f35b6105bb611a40565b604051808273ffffffffffffffffffffffffffffffffffffffff16815260200191505060405180910390f35b6105ef611a69565b6040518082815260200191505060405180910390f35b61060d611a6e565b6040518082815260200191505060405180910390f35b61062b611a73565b6040518082815260200191505060405180910390f35b610649611a79565b6040518082815260200191505060405180910390f35b6106a16004803603602081101561067557600080fd5b81019080803573ffffffffffffffffffffffffffffffffffffffff169060200190929190505050611b44565b005b6106ab611c4b565b005b6106d9600480360360208110156106c357600080fd5b8101908080359060200190929190505050611e3c565b604051808273ffffffffffffffffffffffffffffffffffffffff16815260200191505060405180910390f35b6107476004803603602081101561071b57600080fd5b81019080803573ffffffffffffffffffffffffffffffffffffffff169060200190929190505050611e78565b005b6107756004803603602081101561075f57600080fd5b8101908080359060200190929190505050612083565b604051808273ffffffffffffffffffffffffffffffffffffffff16815260200191505060405180910390f35b6107a96120bf565b604051808273ffffffffffffffffffffffffffffffffffffffff16815260200191505060405180910390f35b6107dd6120d7565b604051808273ffffffffffffffffffffffffffffffffffffffff16815260200191505060405180910390f35b6108116120ef565b005b61081b6123ff565b604051808273ffffffffffffffffffffffffffffffffffffffff16815260200191505060405180910390f35b60008073c772955c33088a97d56d0bbf473d05267bc4febb73ffffffffffffffffffffffffffffffffffffffff166393f1a40b600360149054906101000a900460ff16306040518363ffffffff1660e01b8152600401808360ff1681526020018273ffffffffffffffffffffffffffffffffffffffff16815260200192505050604080518083038186803b1580156108de57600080fd5b505afa1580156108f2573d6000803e3d6000fd5b505050506040513d604081101561090857600080fd5b8101908080519060200190929190805190602001909291905050505090508091505090565b73790be81c3ca0e53974be2688cdb954732c9862e181565b600560009054906101000a900473ffffffffffffffffffffffffffffffffffffffff1681565b7305ff2b0db69458a0750badebc4f9e13add608c7f81565b600460009054906101000a900473ffffffffffffffffffffffffffffffffffffffff1673ffffffffffffffffffffffffffffffffffffffff163373ffffffffffffffffffffffffffffffffffffffff1614610a46576040517f08c379a00000000000000000000000000000000000000000000000000000000081526004018080602001828103825260068152602001807f217661756c74000000000000000000000000000000000000000000000000000081525060200191505060405180910390fd5b6000600160009054906101000a900473ffffffffffffffffffffffffffffffffffffffff1673ffffffffffffffffffffffffffffffffffffffff166370a08231306040518263ffffffff1660e01b8152600401808273ffffffffffffffffffffffffffffffffffffffff16815260200191505060206040518083038186803b158015610ad157600080fd5b505afa158015610ae5573d6000803e3d6000fd5b505050506040513d6020811015610afb57600080fd5b8101908080519060200190929190505050905081811015610c885773c772955c33088a97d56d0bbf473d05267bc4febb73ffffffffffffffffffffffffffffffffffffffff1663441a3e70600360149054906101000a900460ff16610b69848661263590919063ffffffff16565b6040518363ffffffff1660e01b8152600401808360ff16815260200182815260200192505050600060405180830381600087803b158015610ba957600080fd5b505af1158015610bbd573d6000803e3d6000fd5b50505050600160009054906101000a900473ffffffffffffffffffffffffffffffffffffffff1673ffffffffffffffffffffffffffffffffffffffff166370a08231306040518263ffffffff1660e01b8152600401808273ffffffffffffffffffffffffffffffffffffffff16815260200191505060206040518083038186803b158015610c4a57600080fd5b505afa158015610c5e573d6000803e3d6000fd5b505050506040513d6020811015610c7457600080fd5b810190808051906020019092919050505090505b81811115610c94578190505b6000610cbe612710610cb0600a8561267f90919063ffffffff16565b61270590919063ffffffff16565b9050610d41600460009054906101000a900473ffffffffffffffffffffffffffffffffffffffff16610cf9838561263590919063ffffffff16565b600160009054906101000a900473ffffffffffffffffffffffffffffffffffffffff1673ffffffffffffffffffffffffffffffffffffffff1661274f9092919063ffffffff16565b505050565b73e9e7cea3dedca5984780bafc599bd69add087d5681565b600360149054906101000a900460ff1681565b610d796127f1565b73ffffffffffffffffffffffffffffffffffffffff1660008054906101000a900473ffffffffffffffffffffffffffffffffffffffff1673ffffffffffffffffffffffffffffffffffffffff1614610e39576040517f08c379a00000000000000000000000000000000000000000000000000000000081526004018080602001828103825260208152602001807f4f776e61626c653a2063616c6c6572206973206e6f7420746865206f776e657281525060200191505060405180910390fd5b610e416127f9565b610ec273c772955c33088a97d56d0bbf473d05267bc4febb7fffffffffffffffffffffffffffffffffffffffffffffffffffffffffffffffff600160009054906101000a900473ffffffffffffffffffffffffffffffffffffffff1673ffffffffffffffffffffffffffffffffffffffff166124259092919063ffffffff16565b610f357305ff2b0db69458a0750badebc4f9e13add608c7f7fffffffffffffffffffffffffffffffffffffffffffffffffffffffffffffffff73790be81c3ca0e53974be2688cdb954732c9862e173ffffffffffffffffffffffffffffffffffffffff166124259092919063ffffffff16565b610fa87305ff2b0db69458a0750badebc4f9e13add608c7f7fffffffffffffffffffffffffffffffffffffffffffffffffffffffffffffffff73bb4cdb9cbd36b01bd1cbaebf2de08d9173bc095c73ffffffffffffffffffffffffffffffffffffffff166124259092919063ffffffff16565b61100a7305ff2b0db69458a0750badebc4f9e13add608c7f6000600260009054906101000a900473ffffffffffffffffffffffffffffffffffffffff1673ffffffffffffffffffffffffffffffffffffffff166124259092919063ffffffff16565b61108b7305ff2b0db69458a0750badebc4f9e13add608c7f7fffffffffffffffffffffffffffffffffffffffffffffffffffffffffffffffff600260009054906101000a900473ffffffffffffffffffffffffffffffffffffffff1673ffffffffffffffffffffffffffffffffffffffff166124259092919063ffffffff16565b6110ed7305ff2b0db69458a0750badebc4f9e13add608c7f6000600360009054906101000a900473ffffffffffffffffffffffffffffffffffffffff1673ffffffffffffffffffffffffffffffffffffffff166124259092919063ffffffff16565b61116e7305ff2b0db69458a0750badebc4f9e13add608c7f7fffffffffffffffffffffffffffffffffffffffffffffffffffffffffffffffff600360009054906101000a900473ffffffffffffffffffffffffffffffffffffffff1673ffffffffffffffffffffffffffffffffffffffff166124259092919063ffffffff16565b565b600160009054906101000a900473ffffffffffffffffffffffffffffffffffffffff1681565b600060149054906101000a900460ff1615611219576040517f08c379a00000000000000000000000000000000000000000000000000000000081526004018080602001828103825260108152602001807f5061757361626c653a207061757365640000000000000000000000000000000081525060200191505060405180910390fd5b611222336125ea565b15611295576040517f08c379a00000000000000000000000000000000000000000000000000000000081526004018080602001828103825260098152602001807f21636f6e7472616374000000000000000000000000000000000000000000000081525060200191505060405180910390fd5b73c772955c33088a97d56d0bbf473d05267bc4febb73ffffffffffffffffffffffffffffffffffffffff1663e2bbb158600360149054906101000a900460ff1660006040518363ffffffff1660e01b8152600401808360ff16815260200182815260200192505050600060405180830381600087803b15801561131757600080fd5b505af115801561132b573d6000803e3d6000fd5b505050506113376128eb565b61133f612fad565b611347611c4b565b3373ffffffffffffffffffffffffffffffffffffffff167f577a37fdb49a88d66684922c6f913df5239b4f214b2b97c53ef8e3bbb2034cb560405160405180910390a2565b6113946127f1565b73ffffffffffffffffffffffffffffffffffffffff1660008054906101000a900473ffffffffffffffffffffffffffffffffffffffff1673ffffffffffffffffffffffffffffffffffffffff1614611454576040517f08c379a00000000000000000000000000000000000000000000000000000000081526004018080602001828103825260208152602001807f4f776e61626c653a2063616c6c6572206973206e6f7420746865206f776e657281525060200191505060405180910390fd5b61145c611762565b73c772955c33088a97d56d0bbf473d05267bc4febb73ffffffffffffffffffffffffffffffffffffffff16635312ea8e600360149054906101000a900460ff166040518263ffffffff1660e01b8152600401808260ff168152602001915050600060405180830381600087803b1580156114d557600080fd5b505af11580156114e9573d6000803e3d6000fd5b50505050565b61025881565b61271081565b6009818154811061150857fe5b906000526020600020016000915054906101000a900473ffffffffffffffffffffffffffffffffffffffff1681565b60008060149054906101000a900460ff16905090565b6007818154811061155a57fe5b906000526020600020016000915054906101000a900473ffffffffffffffffffffffffffffffffffffffff1681565b600260009054906101000a900473ffffffffffffffffffffffffffffffffffffffff1681565b6115b76127f1565b73ffffffffffffffffffffffffffffffffffffffff1660008054906101000a900473ffffffffffffffffffffffffffffffffffffffff1673ffffffffffffffffffffffffffffffffffffffff1614611677576040517f08c379a00000000000000000000000000000000000000000000000000000000081526004018080602001828103825260208152602001807f4f776e61626c653a2063616c6c6572206973206e6f7420746865206f776e657281525060200191505060405180910390fd5b600073ffffffffffffffffffffffffffffffffffffffff1660008054906101000a900473ffffffffffffffffffffffffffffffffffffffff1673ffffffffffffffffffffffffffffffffffffffff167f8be0079c531659141344cd1fd0a4f28419497f9722a3daafe3b4186f6b6457e060405160405180910390a360008060006101000a81548173ffffffffffffffffffffffffffffffffffffffff021916908373ffffffffffffffffffffffffffffffffffffffff160217905550565b6000611758611742610847565b61174a611a79565b61386990919063ffffffff16565b905090565b60c881565b61176a6127f1565b73ffffffffffffffffffffffffffffffffffffffff1660008054906101000a900473ffffffffffffffffffffffffffffffffffffffff1673ffffffffffffffffffffffffffffffffffffffff161461182a576040517f08c379a00000000000000000000000000000000000000000000000000000000081526004018080602001828103825260208152602001807f4f776e61626c653a2063616c6c6572206973206e6f7420746865206f776e657281525060200191505060405180910390fd5b6118326138f1565b61189473c772955c33088a97d56d0bbf473d05267bc4febb6000600160009054906101000a900473ffffffffffffffffffffffffffffffffffffffff1673ffffffffffffffffffffffffffffffffffffffff166124259092919063ffffffff16565b6118e87305ff2b0db69458a0750badebc4f9e13add608c7f600073790be81c3ca0e53974be2688cdb954732c9862e173ffffffffffffffffffffffffffffffffffffffff166124259092919063ffffffff16565b61193c7305ff2b0db69458a0750badebc4f9e13add608c7f600073bb4cdb9cbd36b01bd1cbaebf2de08d9173bc095c73ffffffffffffffffffffffffffffffffffffffff166124259092919063ffffffff16565b61199e7305ff2b0db69458a0750badebc4f9e13add608c7f6000600260009054906101000a900473ffffffffffffffffffffffffffffffffffffffff1673ffffffffffffffffffffffffffffffffffffffff166124259092919063ffffffff16565b611a007305ff2b0db69458a0750badebc4f9e13add608c7f6000600360009054906101000a900473ffffffffffffffffffffffffffffffffffffffff1673ffffffffffffffffffffffffffffffffffffffff166124259092919063ffffffff16565b565b600360009054906101000a900473ffffffffffffffffffffffffffffffffffffffff1681565b73bb4cdb9cbd36b01bd1cbaebf2de08d9173bc095c81565b60008060009054906101000a900473ffffffffffffffffffffffffffffffffffffffff16905090565b60c881565b600a81565b6103e881565b6000600160009054906101000a900473ffffffffffffffffffffffffffffffffffffffff1673ffffffffffffffffffffffffffffffffffffffff166370a08231306040518263ffffffff1660e01b8152600401808273ffffffffffffffffffffffffffffffffffffffff16815260200191505060206040518083038186803b158015611b0457600080fd5b505afa158015611b18573d6000803e3d6000fd5b505050506040513d6020811015611b2e57600080fd5b8101908080519060200190929190505050905090565b600560009054906101000a900473ffffffffffffffffffffffffffffffffffffffff1673ffffffffffffffffffffffffffffffffffffffff163373ffffffffffffffffffffffffffffffffffffffff1614611c07576040517f08c379a000000000000000000000000000000000000000000000000000000000815260040180806020018281038252600b8152602001807f217374726174656769737400000000000000000000000000000000000000000081525060200191505060405180910390fd5b80600560006101000a81548173ffffffffffffffffffffffffffffffffffffffff021916908373ffffffffffffffffffffffffffffffffffffffff16021790555050565b600060149054906101000a900460ff1615611cce576040517f08c379a00000000000000000000000000000000000000000000000000000000081526004018080602001828103825260108152602001807f5061757361626c653a207061757365640000000000000000000000000000000081525060200191505060405180910390fd5b6000600160009054906101000a900473ffffffffffffffffffffffffffffffffffffffff1673ffffffffffffffffffffffffffffffffffffffff166370a08231306040518263ffffffff1660e01b8152600401808273ffffffffffffffffffffffffffffffffffffffff16815260200191505060206040518083038186803b158015611d5957600080fd5b505afa158015611d6d573d6000803e3d6000fd5b505050506040513d6020811015611d8357600080fd5b810190808051906020019092919050505090506000811115611e395773c772955c33088a97d56d0bbf473d05267bc4febb73ffffffffffffffffffffffffffffffffffffffff1663e2bbb158600360149054906101000a900460ff16836040518363ffffffff1660e01b8152600401808360ff16815260200182815260200192505050600060405180830381600087803b158015611e2057600080fd5b505af1158015611e34573d6000803e3d6000fd5b505050505b50565b60088181548110611e4957fe5b906000526020600020016000915054906101000a900473ffffffffffffffffffffffffffffffffffffffff1681565b611e806127f1565b73ffffffffffffffffffffffffffffffffffffffff1660008054906101000a900473ffffffffffffffffffffffffffffffffffffffff1673ffffffffffffffffffffffffffffffffffffffff1614611f40576040517f08c379a00000000000000000000000000000000000000000000000000000000081526004018080602001828103825260208152602001807f4f776e61626c653a2063616c6c6572206973206e6f7420746865206f776e657281525060200191505060405180910390fd5b600073ffffffffffffffffffffffffffffffffffffffff168173ffffffffffffffffffffffffffffffffffffffff161415611fc6576040517f08c379a0000000000000000000000000000000000000000000000000000000008152600401808060200182810382526026815260200180613db76026913960400191505060405180910390fd5b8073ffffffffffffffffffffffffffffffffffffffff1660008054906101000a900473ffffffffffffffffffffffffffffffffffffffff1673ffffffffffffffffffffffffffffffffffffffff167f8be0079c531659141344cd1fd0a4f28419497f9722a3daafe3b4186f6b6457e060405160405180910390a3806000806101000a81548173ffffffffffffffffffffffffffffffffffffffff021916908373ffffffffffffffffffffffffffffffffffffffff16021790555050565b6006818154811061209057fe5b906000526020600020016000915054906101000a900473ffffffffffffffffffffffffffffffffffffffff1681565b73790be81c3ca0e53974be2688cdb954732c9862e181565b73c772955c33088a97d56d0bbf473d05267bc4febb81565b600460009054906101000a900473ffffffffffffffffffffffffffffffffffffffff1673ffffffffffffffffffffffffffffffffffffffff163373ffffffffffffffffffffffffffffffffffffffff16146121b2576040517f08c379a00000000000000000000000000000000000000000000000000000000081526004018080602001828103825260068152602001807f217661756c74000000000000000000000000000000000000000000000000000081525060200191505060405180910390fd5b73c772955c33088a97d56d0bbf473d05267bc4febb73ffffffffffffffffffffffffffffffffffffffff16635312ea8e600360149054906101000a900460ff166040518263ffffffff1660e01b8152600401808260ff168152602001915050600060405180830381600087803b15801561222b57600080fd5b505af115801561223f573d6000803e3d6000fd5b505050506000600160009054906101000a900473ffffffffffffffffffffffffffffffffffffffff1673ffffffffffffffffffffffffffffffffffffffff166370a08231306040518263ffffffff1660e01b8152600401808273ffffffffffffffffffffffffffffffffffffffff16815260200191505060206040518083038186803b1580156122ce57600080fd5b505afa1580156122e2573d6000803e3d6000fd5b505050506040513d60208110156122f857600080fd5b81019080805190602001909291905050509050600160009054906101000a900473ffffffffffffffffffffffffffffffffffffffff1673ffffffffffffffffffffffffffffffffffffffff1663a9059cbb600460009054906101000a900473ffffffffffffffffffffffffffffffffffffffff16836040518363ffffffff1660e01b8152600401808373ffffffffffffffffffffffffffffffffffffffff16815260200182815260200192505050602060405180830381600087803b1580156123c057600080fd5b505af11580156123d4573d6000803e3d6000fd5b505050506040513d60208110156123ea57600080fd5b81019080805190602001909291905050505050565b600460009054906101000a900473ffffffffffffffffffffffffffffffffffffffff1681565b60008114806124f3575060008373ffffffffffffffffffffffffffffffffffffffff1663dd62ed3e30856040518363ffffffff1660e01b8152600401808373ffffffffffffffffffffffffffffffffffffffff1681526020018273ffffffffffffffffffffffffffffffffffffffff1681526020019250505060206040518083038186803b1580156124b657600080fd5b505afa1580156124ca573d6000803e3d6000fd5b505050506040513d60208110156124e057600080fd5b8101908080519060200190929190505050145b612548576040517f08c379a0000000000000000000000000000000000000000000000000000000008152600401808060200182810382526036815260200180613e286036913960400191505060405180910390fd5b6125e58363095ea7b360e01b8484604051602401808373ffffffffffffffffffffffffffffffffffffffff16815260200182815260200192505050604051602081830303815290604052907bffffffffffffffffffffffffffffffffffffffffffffffffffffffff19166020820180517bffffffffffffffffffffffffffffffffffffffffffffffffffffffff83818316178352505050506139e5565b505050565b60008060007fc5d2460186f7233c927e7db2dcc703c0e500b653ca82273b7bfad8045d85a47060001b9050833f915080821415801561262c57506000801b8214155b92505050919050565b600061267783836040518060400160405280601e81526020017f536166654d6174683a207375627472616374696f6e206f766572666c6f770000815250613c30565b905092915050565b60008083141561269257600090506126ff565b60008284029050828482816126a357fe5b04146126fa576040517f08c379a0000000000000000000000000000000000000000000000000000000008152600401808060200182810382526021815260200180613ddd6021913960400191505060405180910390fd5b809150505b92915050565b600061274783836040518060400160405280601a81526020017f536166654d6174683a206469766973696f6e206279207a65726f000000000000815250613cf0565b905092915050565b6127ec8363a9059cbb60e01b8484604051602401808373ffffffffffffffffffffffffffffffffffffffff16815260200182815260200192505050604051602081830303815290604052907bffffffffffffffffffffffffffffffffffffffffffffffffffffffff19166020820180517bffffffffffffffffffffffffffffffffffffffffffffffffffffffff83818316178352505050506139e5565b505050565b600033905090565b600060149054906101000a900460ff1661287b576040517f08c379a00000000000000000000000000000000000000000000000000000000081526004018080602001828103825260148152602001807f5061757361626c653a206e6f742070617573656400000000000000000000000081525060200191505060405180910390fd5b60008060146101000a81548160ff0219169083151502179055507f5db9ee0a495bf2e6ff9c91a7834c1ba4fdd244a5e8aa4e537bd38aeae4b073aa6128be6127f1565b604051808273ffffffffffffffffffffffffffffffffffffffff16815260200191505060405180910390a1565b60006129ca6103e86129bc601973790be81c3ca0e53974be2688cdb954732c9862e173ffffffffffffffffffffffffffffffffffffffff166370a08231306040518263ffffffff1660e01b8152600401808273ffffffffffffffffffffffffffffffffffffffff16815260200191505060206040518083038186803b15801561297357600080fd5b505afa158015612987573d6000803e3d6000fd5b505050506040513d602081101561299d57600080fd5b810190808051906020019092919050505061267f90919063ffffffff16565b61270590919063ffffffff16565b90507305ff2b0db69458a0750badebc4f9e13add608c7f73ffffffffffffffffffffffffffffffffffffffff166338ed1739826000600630612a176102584261386990919063ffffffff16565b6040518663ffffffff1660e01b815260040180868152602001858152602001806020018473ffffffffffffffffffffffffffffffffffffffff1681526020018381526020018281038252858181548152602001915080548015612acf57602002820191906000526020600020905b8160009054906101000a900473ffffffffffffffffffffffffffffffffffffffff1673ffffffffffffffffffffffffffffffffffffffff1681526020019060010190808311612a85575b50509650505050505050600060405180830381600087803b158015612af357600080fd5b505af1158015612b07573d6000803e3d6000fd5b505050506040513d6000823e3d601f19601f820116820180604052506020811015612b3157600080fd5b8101908080516040519392919084640100000000821115612b5157600080fd5b83820191506020820185811115612b6757600080fd5b8251866020820283011164010000000082111715612b8457600080fd5b8083526020830192505050908051906020019060200280838360005b83811015612bbb578082015181840152602081019050612ba0565b5050505090500160405250505050600073bb4cdb9cbd36b01bd1cbaebf2de08d9173bc095c73ffffffffffffffffffffffffffffffffffffffff166370a08231306040518263ffffffff1660e01b8152600401808273ffffffffffffffffffffffffffffffffffffffff16815260200191505060206040518083038186803b158015612c4657600080fd5b505afa158015612c5a573d6000803e3d6000fd5b505050506040513d6020811015612c7057600080fd5b810190808051906020019092919050505090506000612cad6103e8612c9f60c88561267f90919063ffffffff16565b61270590919063ffffffff16565b9050612cee338273bb4cdb9cbd36b01bd1cbaebf2de08d9173bc095c73ffffffffffffffffffffffffffffffffffffffff1661274f9092919063ffffffff16565b6000612d196103e8612d0b6102588661267f90919063ffffffff16565b61270590919063ffffffff16565b90507305ff2b0db69458a0750badebc4f9e13add608c7f73ffffffffffffffffffffffffffffffffffffffff166338ed173982600060076000612d676102584261386990919063ffffffff16565b6040518663ffffffff1660e01b815260040180868152602001858152602001806020018473ffffffffffffffffffffffffffffffffffffffff1681526020018381526020018281038252858181548152602001915080548015612e1f57602002820191906000526020600020905b8160009054906101000a900473ffffffffffffffffffffffffffffffffffffffff1673ffffffffffffffffffffffffffffffffffffffff1681526020019060010190808311612dd5575b50509650505050505050600060405180830381600087803b158015612e4357600080fd5b505af1158015612e57573d6000803e3d6000fd5b505050506040513d6000823e3d601f19601f820116820180604052506020811015612e8157600080fd5b8101908080516040519392919084640100000000821115612ea157600080fd5b83820191506020820185811115612eb757600080fd5b8251866020820283011164010000000082111715612ed457600080fd5b8083526020830192505050908051906020019060200280838360005b83811015612f0b578082015181840152602081019050612ef0565b50505050905001604052505050506000612f436103e8612f3560c88761267f90919063ffffffff16565b61270590919063ffffffff16565b9050612fa6600560009054906101000a900473ffffffffffffffffffffffffffffffffffffffff168273bb4cdb9cbd36b01bd1cbaebf2de08d9173bc095c73ffffffffffffffffffffffffffffffffffffffff1661274f9092919063ffffffff16565b5050505050565b6000613078600273790be81c3ca0e53974be2688cdb954732c9862e173ffffffffffffffffffffffffffffffffffffffff166370a08231306040518263ffffffff1660e01b8152600401808273ffffffffffffffffffffffffffffffffffffffff16815260200191505060206040518083038186803b15801561302f57600080fd5b505afa158015613043573d6000803e3d6000fd5b505050506040513d602081101561305957600080fd5b810190808051906020019092919050505061270590919063ffffffff16565b905073790be81c3ca0e53974be2688cdb954732c9862e173ffffffffffffffffffffffffffffffffffffffff16600260009054906101000a900473ffffffffffffffffffffffffffffffffffffffff1673ffffffffffffffffffffffffffffffffffffffff16146132e1577305ff2b0db69458a0750badebc4f9e13add608c7f73ffffffffffffffffffffffffffffffffffffffff166338ed173982600060083061312e6102584261386990919063ffffffff16565b6040518663ffffffff1660e01b815260040180868152602001858152602001806020018473ffffffffffffffffffffffffffffffffffffffff16815260200183815260200182810382528581815481526020019150805480156131e657602002820191906000526020600020905b8160009054906101000a900473ffffffffffffffffffffffffffffffffffffffff1673ffffffffffffffffffffffffffffffffffffffff168152602001906001019080831161319c575b50509650505050505050600060405180830381600087803b15801561320a57600080fd5b505af115801561321e573d6000803e3d6000fd5b505050506040513d6000823e3d601f19601f82011682018060405250602081101561324857600080fd5b810190808051604051939291908464010000000082111561326857600080fd5b8382019150602082018581111561327e57600080fd5b825186602082028301116401000000008211171561329b57600080fd5b8083526020830192505050908051906020019060200280838360005b838110156132d25780820151818401526020810190506132b7565b50505050905001604052505050505b73790be81c3ca0e53974be2688cdb954732c9862e173ffffffffffffffffffffffffffffffffffffffff16600360009054906101000a900473ffffffffffffffffffffffffffffffffffffffff1673ffffffffffffffffffffffffffffffffffffffff1614613548577305ff2b0db69458a0750badebc4f9e13add608c7f73ffffffffffffffffffffffffffffffffffffffff166338ed17398260006009306133956102584261386990919063ffffffff16565b6040518663ffffffff1660e01b815260040180868152602001858152602001806020018473ffffffffffffffffffffffffffffffffffffffff168152602001838152602001828103825285818154815260200191508054801561344d57602002820191906000526020600020905b8160009054906101000a900473ffffffffffffffffffffffffffffffffffffffff1673ffffffffffffffffffffffffffffffffffffffff1681526020019060010190808311613403575b50509650505050505050600060405180830381600087803b15801561347157600080fd5b505af1158015613485573d6000803e3d6000fd5b505050506040513d6000823e3d601f19601f8201168201806040525060208110156134af57600080fd5b81019080805160405193929190846401000000008211156134cf57600080fd5b838201915060208201858111156134e557600080fd5b825186602082028301116401000000008211171561350257600080fd5b8083526020830192505050908051906020019060200280838360005b8381101561353957808201518184015260208101905061351e565b50505050905001604052505050505b6000600260009054906101000a900473ffffffffffffffffffffffffffffffffffffffff1673ffffffffffffffffffffffffffffffffffffffff166370a08231306040518263ffffffff1660e01b8152600401808273ffffffffffffffffffffffffffffffffffffffff16815260200191505060206040518083038186803b1580156135d357600080fd5b505afa1580156135e7573d6000803e3d6000fd5b505050506040513d60208110156135fd57600080fd5b810190808051906020019092919050505090506000600360009054906101000a900473ffffffffffffffffffffffffffffffffffffffff1673ffffffffffffffffffffffffffffffffffffffff166370a08231306040518263ffffffff1660e01b8152600401808273ffffffffffffffffffffffffffffffffffffffff16815260200191505060206040518083038186803b15801561369b57600080fd5b505afa1580156136af573d6000803e3d6000fd5b505050506040513d60208110156136c557600080fd5b810190808051906020019092919050505090507305ff2b0db69458a0750badebc4f9e13add608c7f73ffffffffffffffffffffffffffffffffffffffff1663e8e33700600260009054906101000a900473ffffffffffffffffffffffffffffffffffffffff16600360009054906101000a900473ffffffffffffffffffffffffffffffffffffffff168585600180306137696102584261386990919063ffffffff16565b6040518963ffffffff1660e01b8152600401808973ffffffffffffffffffffffffffffffffffffffff1681526020018873ffffffffffffffffffffffffffffffffffffffff1681526020018781526020018681526020018581526020018481526020018373ffffffffffffffffffffffffffffffffffffffff16815260200182815260200198505050505050505050606060405180830381600087803b15801561381257600080fd5b505af1158015613826573d6000803e3d6000fd5b505050506040513d606081101561383c57600080fd5b81019080805190602001909291908051906020019092919080519060200190929190505050505050505050565b6000808284019050838110156138e7576040517f08c379a000000000000000000000000000000000000000000000000000000000815260040180806020018281038252601b8152602001807f536166654d6174683a206164646974696f6e206f766572666c6f77000000000081525060200191505060405180910390fd5b8091505092915050565b600060149054906101000a900460ff1615613974576040517f08c379a00000000000000000000000000000000000000000000000000000000081526004018080602001828103825260108152602001807f5061757361626c653a207061757365640000000000000000000000000000000081525060200191505060405180910390fd5b6001600060146101000a81548160ff0219169083151502179055507f62e78cea01bee320cd4e420270b5ea74000d11b0c9f74754ebdbfc544b05a2586139b86127f1565b604051808273ffffffffffffffffffffffffffffffffffffffff16815260200191505060405180910390a1565b613a048273ffffffffffffffffffffffffffffffffffffffff166125ea565b613a76576040517f08c379a000000000000000000000000000000000000000000000000000000000815260040180806020018281038252601f8152602001807f5361666545524332303a2063616c6c20746f206e6f6e2d636f6e74726163740081525060200191505060405180910390fd5b600060608373ffffffffffffffffffffffffffffffffffffffff16836040518082805190602001908083835b60208310613ac55780518252602082019150602081019050602083039250613aa2565b6001836020036101000a0380198251168184511680821785525050505050509050019150506000604051808303816000865af19150503d8060008114613b27576040519150601f19603f3d011682016040523d82523d6000602084013e613b2c565b606091505b509150915081613ba4576040517f08c379a00000000000000000000000000000000000000000000000000000000081526004018080602001828103825260208152602001807f5361666545524332303a206c6f772d6c6576656c2063616c6c206661696c656481525060200191505060405180910390fd5b600081511115613c2a57808060200190516020811015613bc357600080fd5b8101908080519060200190929190505050613c29576040517f08c379a000000000000000000000000000000000000000000000000000000000815260040180806020018281038252602a815260200180613dfe602a913960400191505060405180910390fd5b5b50505050565b6000838311158290613cdd576040517f08c379a00000000000000000000000000000000000000000000000000000000081526004018080602001828103825283818151815260200191508051906020019080838360005b83811015613ca2578082015181840152602081019050613c87565b50505050905090810190601f168015613ccf5780820380516001836020036101000a031916815260200191505b509250505060405180910390fd5b5060008385039050809150509392505050565b60008083118290613d9c576040517f08c379a00000000000000000000000000000000000000000000000000000000081526004018080602001828103825283818151815260200191508051906020019080838360005b83811015613d61578082015181840152602081019050613d46565b50505050905090810190601f168015613d8e5780820380516001836020036101000a031916815260200191505b509250505060405180910390fd5b506000838581613da857fe5b04905080915050939250505056fe4f776e61626c653a206e6577206f776e657220697320746865207a65726f2061646472657373536166654d6174683a206d756c7469706c69636174696f6e206f766572666c6f775361666545524332303a204552433230206f7065726174696f6e20646964206e6f7420737563636565645361666545524332303a20617070726f76652066726f6d206e6f6e2d7a65726f20746f206e6f6e2d7a65726f20616c6c6f77616e6365a26469706673582212207f3653fa3196a2f8aea179d65da24d90cfdec361273e952d50f2122272ff033a64736f6c634300060c00335361666545524332303a204552433230206f7065726174696f6e20646964206e6f7420737563636565645361666545524332303a20617070726f76652066726f6d206e6f6e2d7a65726f20746f206e6f6e2d7a65726f20616c6c6f77616e6365",
  "immutableReferences": {},
  "source": "// SPDX-License-Identifier: MIT\npragma solidity ^0.6.0;\n\nimport \"@openzeppelin/contracts/GSN/Context.sol\";\nimport \"@openzeppelin/contracts/access/Ownable.sol\";\nimport \"@openzeppelin/contracts/token/ERC20/IERC20.sol\";\nimport \"@openzeppelin/contracts/math/SafeMath.sol\";\nimport \"@openzeppelin/contracts/utils/Address.sol\";\nimport \"@openzeppelin/contracts/token/ERC20/ERC20.sol\";\nimport \"@openzeppelin/contracts/token/ERC20/SafeERC20.sol\";\nimport \"@openzeppelin/contracts/utils/Pausable.sol\";\n\nimport \"../interfaces/IUniswapRouterETH.sol\";\nimport \"../interfaces/IUniswapV2Pair.sol\";\nimport \"../interfaces/IMasterChef.sol\";\n\n\n/**\n * @dev Implementation of a strategy to get yields from farming LP Pools in\n * CafeSwap.\n * This strat is currently compatible with all LP pools.\n */\ncontract StrategyCafeLP is Ownable, Pausable {\n    using SafeERC20 for IERC20;\n    using Address for address;\n    using SafeMath for uint256;\n\n    /**\n     * @dev Tokens Used:\n     * {wbnb, busd} - Required for liquidity routing when doing swaps.\n     * {rewardToken} - Token generated by staking our funds.\n     * {brew} - BREW token to buy and burn.\n     * {lpPair} - Token that the strategy maximizes. The same token that users deposit in the vault.\n     * {lpToken0, lpToken1} - Tokens that the strategy maximizes. IUniswapV2Pair tokens\n     */\n    address constant public wbnb = address(0xbb4CdB9CBd36B01bD1cBaEBF2De08d9173bc095c);\n    address constant public busd = address(0xe9e7CEA3DedcA5984780Bafc599bD69ADd087D56);\n    address constant public rewardToken = address(0x790Be81C3cA0e53974bE2688cDb954732C9862e1);\n    address constant public brew = address(0x790Be81C3cA0e53974bE2688cDb954732C9862e1);\n    address public lpPair;\n    address public lpToken0;\n    address public lpToken1;\n\n    /**\n     * @dev Third Party Contracts:\n     * {unirouter} - PancakeSwap unirouter\n     * {masterchef} - MasterChef contract\n     * {poolId} - MasterChef pool id\n     */\n    address constant public unirouter  = address(0x05fF2B0DB69458A0750badebc4f9e13aDd608C7F);\n    address constant public masterchef = address(0xc772955c33088a97D56d0BBf473d05267bC4feBB);\n    uint8 public poolId;\n\n    /**\n     * @dev Coffee Contracts:\n     * {vault} - Address of the vault that controls the strategy's funds.\n     * {strategist} - Address of the strategy author/deployer where strategist fee will go.\n     */\n    address public vault;\n    address public strategist;\n\n    /**\n     * @dev Distribution of fees earned. This allocations relative to the % implemented on doSplit().\n     * Current implementation separates 2.5% for fees.\n     *\n     * {BURN_FEE} - 1.5% goes to buying BREW and burning it.\n     * {CALL_FEE} - 0.5% goes to whoever executes the harvest function as gas subsidy.\n     * {STRATEGIST_FEE} - 0.5% goes to the strategist.\n     * {MAX_FEE} - Aux const used to safely calc the correct amounts.\n     *\n     * {WITHDRAWAL_FEE} - Fee taxed when a user withdraws funds. 10 === 0.1% fee.\n     * {WITHDRAWAL_MAX} - Aux const used to safely calc the correct amounts.\n     */\n    uint constant public BURN_FEE    = 600;\n    uint constant public CALL_FEE       = 200;\n    uint constant public STRATEGIST_FEE = 200;\n    uint constant public MAX_FEE        = 1000;\n\n    uint constant public WITHDRAWAL_FEE = 10;\n    uint constant public WITHDRAWAL_MAX = 10000;\n\n    /**\n     * @dev Routes we take to swap tokens using PancakeSwap.\n     * {rewardTokenToWbnbRoute} - Route we take to get from {rewardToken} into {wbnb}.\n     * {wbnbToBrewRoute} - Route we take to get from {wbnb} into {brew}.\n     * {rewardTokenToLp0Route} - Route we take to get from {rewardToken} into {lpToken0}.\n     * {rewardTokenToLp1Route} - Route we take to get from {rewardToken} into {lpToken1}.\n     */\n    address[] public rewardTokenToWbnbRoute = [rewardToken, wbnb];\n    address[] public wbnbToBrewRoute = [wbnb, brew];\n    address[] public rewardTokenToLp0Route;\n    address[] public rewardTokenToLp1Route;\n\n    /**\n     * @dev Event that is fired each time someone harvests the strat.\n     */\n    event StratHarvest(address indexed harvester);\n\n    /**\n     * @dev Initializes the strategy with the token to maximize.\n     */\n    constructor(address _lpPair, uint8 _poolId, address _vault, address _strategist) public {\n        lpPair = _lpPair;\n        lpToken0 = IUniswapV2Pair(lpPair).token0();\n        lpToken1 = IUniswapV2Pair(lpPair).token1();\n        poolId = _poolId;\n        vault = _vault;\n        strategist = _strategist;\n\n        if (lpToken0 == wbnb) {\n            rewardTokenToLp0Route = [rewardToken, wbnb];\n        } else if (lpToken0 == busd) {\n            rewardTokenToLp0Route = [rewardToken, busd];\n        } else if (lpToken0 != rewardToken) {\n            rewardTokenToLp0Route = [rewardToken, wbnb, lpToken0];\n        }\n\n        if (lpToken1 == wbnb) {\n            rewardTokenToLp1Route = [rewardToken, wbnb];\n        } else if (lpToken1 == busd) {\n            rewardTokenToLp1Route = [rewardToken, busd];\n        } else if (lpToken1 != rewardToken) {\n            rewardTokenToLp1Route = [rewardToken, wbnb, lpToken1];\n        }\n\n        IERC20(lpPair).safeApprove(masterchef, uint(-1));\n        IERC20(rewardToken).safeApprove(unirouter, uint(-1));\n        IERC20(wbnb).safeApprove(unirouter, uint(-1));\n\n        IERC20(lpToken0).safeApprove(unirouter, 0);\n        IERC20(lpToken0).safeApprove(unirouter, uint(-1));\n\n        IERC20(lpToken1).safeApprove(unirouter, 0);\n        IERC20(lpToken1).safeApprove(unirouter, uint(-1));\n    }\n\n    /**\n     * @dev Function that puts the funds to work.\n     * It gets called whenever someone deposits in the strategy's vault contract.\n     * It deposits {lpPair} in the MasterChef to farm {rewardToken}\n     */\n    function deposit() public whenNotPaused {\n        uint256 pairBal = IERC20(lpPair).balanceOf(address(this));\n\n        if (pairBal > 0) {\n            IMasterChef(masterchef).deposit(poolId, pairBal);\n        }\n    }\n\n    /**\n     * @dev Withdraws funds and sends them back to the vault.\n     * It withdraws {lpPair} from the MasterChef.\n     * The available {lpPair} minus fees is returned to the vault.\n     */\n    function withdraw(uint256 _amount) external {\n        require(msg.sender == vault, \"!vault\");\n\n        uint256 pairBal = IERC20(lpPair).balanceOf(address(this));\n\n        if (pairBal < _amount) {\n            IMasterChef(masterchef).withdraw(poolId, _amount.sub(pairBal));\n            pairBal = IERC20(lpPair).balanceOf(address(this));\n        }\n\n        if (pairBal > _amount) {\n            pairBal = _amount;\n        }\n\n        uint256 withdrawalFee = pairBal.mul(WITHDRAWAL_FEE).div(WITHDRAWAL_MAX);\n        IERC20(lpPair).safeTransfer(vault, pairBal.sub(withdrawalFee));\n    }\n\n    /**\n     * @dev Core function of the strat, in charge of collecting and re-investing rewards.\n     * 1. It claims rewards from the MasterChef.\n     * 2. It charges the system fees to simplify the split.\n     * 3. It swaps the {rewardToken} token for {lpToken0} & {lpToken1}\n     * 4. Adds more liquidity to the pool.\n     * 5. It deposits the new LP tokens.\n     */\n    function harvest() external whenNotPaused {\n        require(!Address.isContract(msg.sender), \"!contract\");\n        IMasterChef(masterchef).deposit(poolId, 0);\n        chargeFees();\n        addLiquidity();\n        deposit();\n\n        emit StratHarvest(msg.sender);\n    }\n\n    /**\n     * @dev Takes out 2.5% as system fees from the rewards. \n     * 0.5% -> Call Fee\n     * 0.5% -> Strategist fee\n     * 1.5% -> BURN BREW\n     */\n    function chargeFees() internal {\n        uint256 toWbnb = IERC20(rewardToken).balanceOf(address(this)).mul(25).div(1000);\n        IUniswapRouterETH(unirouter).swapExactTokensForTokens(\n          toWbnb,\n          0,\n          rewardTokenToWbnbRoute,\n          address(this),\n          now.add(600));\n\n        uint256 wbnbBal = IERC20(wbnb).balanceOf(address(this));\n\n        uint256 callFee = wbnbBal.mul(CALL_FEE).div(MAX_FEE);\n        IERC20(wbnb).safeTransfer(msg.sender, callFee);\n\n        uint256 burnFee = wbnbBal.mul(BURN_FEE).div(MAX_FEE);\n        IUniswapRouterETH(unirouter).swapExactTokensForTokens(\n          burnFee,\n          0,\n          wbnbToBrewRoute,\n          address(0),\n          now.add(600));\n\n        uint256 strategistFee = wbnbBal.mul(STRATEGIST_FEE).div(MAX_FEE);\n        IERC20(wbnb).safeTransfer(strategist, strategistFee);\n    }\n\n    /**\n     * @dev Swaps {rewardToken} for {lpToken0}, {lpToken1} & {wbnb} using PancakeSwap.\n     */\n    function addLiquidity() internal {\n        uint256 rewardTokenHalf = IERC20(rewardToken).balanceOf(address(this)).div(2);\n\n        if (lpToken0 != rewardToken) {\n            IUniswapRouterETH(unirouter).swapExactTokensForTokens(rewardTokenHalf, 0, rewardTokenToLp0Route, address(this), now.add(600));\n        }\n\n        if (lpToken1 != rewardToken) {\n            IUniswapRouterETH(unirouter).swapExactTokensForTokens(rewardTokenHalf, 0, rewardTokenToLp1Route, address(this), now.add(600));\n        }\n\n        uint256 lp0Bal = IERC20(lpToken0).balanceOf(address(this));\n        uint256 lp1Bal = IERC20(lpToken1).balanceOf(address(this));\n        IUniswapRouterETH(unirouter).addLiquidity(lpToken0, lpToken1, lp0Bal, lp1Bal, 1, 1, address(this), now.add(600));\n    }\n\n    /**\n     * @dev Function to calculate the total underlaying {lpPair} held by the strat.\n     * It takes into account both the funds in hand, as the funds allocated in the MasterChef.\n     */\n    function balanceOf() public view returns (uint256) {\n        return balanceOfLpPair().add(balanceOfPool());\n    }\n\n    /**\n     * @dev It calculates how much {lpPair} the contract holds.\n     */\n    function balanceOfLpPair() public view returns (uint256) {\n        return IERC20(lpPair).balanceOf(address(this));\n    }\n\n    /**\n     * @dev It calculates how much {lpPair} the strategy has allocated in the MasterChef\n     */\n    function balanceOfPool() public view returns (uint256) {\n        (uint256 _amount, ) = IMasterChef(masterchef).userInfo(poolId, address(this));\n        return _amount;\n    }\n\n    /**\n     * @dev Function that has to be called as part of strat migration. It sends all the available funds back to the \n     * vault, ready to be migrated to the new strat.\n     */\n    function retireStrat() external {\n        require(msg.sender == vault, \"!vault\");\n\n        IMasterChef(masterchef).emergencyWithdraw(poolId);\n\n        uint256 pairBal = IERC20(lpPair).balanceOf(address(this));\n        IERC20(lpPair).transfer(vault, pairBal);\n    }\n\n    /**\n     * @dev Pauses deposits. Withdraws all funds from the MasterChef, leaving rewards behind\n     */\n    function panic() public onlyOwner {\n        pause();\n        IMasterChef(masterchef).emergencyWithdraw(poolId);\n    }\n\n    /**\n     * @dev Pauses the strat.\n     */\n    function pause() public onlyOwner {\n        _pause();\n\n        IERC20(lpPair).safeApprove(masterchef, 0);\n        IERC20(rewardToken).safeApprove(unirouter, 0);\n        IERC20(wbnb).safeApprove(unirouter, 0);\n        IERC20(lpToken0).safeApprove(unirouter, 0);\n        IERC20(lpToken1).safeApprove(unirouter, 0);\n    }\n\n    /**\n     * @dev Unpauses the strat.\n     */\n    function unpause() external onlyOwner {\n        _unpause();\n\n        IERC20(lpPair).safeApprove(masterchef, uint(-1));\n        IERC20(rewardToken).safeApprove(unirouter, uint(-1));\n        IERC20(wbnb).safeApprove(unirouter, uint(-1));\n\n        IERC20(lpToken0).safeApprove(unirouter, 0);\n        IERC20(lpToken0).safeApprove(unirouter, uint(-1));\n\n        IERC20(lpToken1).safeApprove(unirouter, 0);\n        IERC20(lpToken1).safeApprove(unirouter, uint(-1));\n    }\n\n    /**\n     * @dev Updates address where strategist fee earnings will go.\n     * @param _strategist new strategist address.\n     */\n    function setStrategist(address _strategist) external {\n        require(msg.sender == strategist, \"!strategist\");\n        strategist = _strategist;\n    }\n}",
  "sourcePath": "/home/nuclearvodka/Projects/CafeSwap/cafeswap-vaults/contracts/Strategies/CafeLP.sol",
  "compiler": {
    "name": "solc",
    "version": "0.6.12+commit.27d51765.Emscripten.clang"
  },
  "schemaVersion": "3.3.4",
  "updatedAt": "2021-03-09T14:29:14.575Z",
  "devdoc": {
    "details": "Implementation of a strategy to get yields from farming LP Pools in CafeSwap. This strat is currently compatible with all LP pools.",
    "events": {
      "StratHarvest(address)": {
        "details": "Event that is fired each time someone harvests the strat."
      }
    },
    "kind": "dev",
    "methods": {
      "balanceOf()": {
        "details": "Function to calculate the total underlaying {lpPair} held by the strat. It takes into account both the funds in hand, as the funds allocated in the MasterChef."
      },
      "balanceOfLpPair()": {
        "details": "It calculates how much {lpPair} the contract holds."
      },
      "balanceOfPool()": {
        "details": "It calculates how much {lpPair} the strategy has allocated in the MasterChef"
      },
      "constructor": {
        "details": "Initializes the strategy with the token to maximize."
      },
      "deposit()": {
        "details": "Function that puts the funds to work. It gets called whenever someone deposits in the strategy's vault contract. It deposits {lpPair} in the MasterChef to farm {rewardToken}"
      },
      "harvest()": {
        "details": "Core function of the strat, in charge of collecting and re-investing rewards. 1. It claims rewards from the MasterChef. 2. It charges the system fees to simplify the split. 3. It swaps the {rewardToken} token for {lpToken0} & {lpToken1} 4. Adds more liquidity to the pool. 5. It deposits the new LP tokens."
      },
      "owner()": {
        "details": "Returns the address of the current owner."
      },
      "panic()": {
        "details": "Pauses deposits. Withdraws all funds from the MasterChef, leaving rewards behind"
      },
      "pause()": {
        "details": "Pauses the strat."
      },
      "paused()": {
        "details": "Returns true if the contract is paused, and false otherwise."
      },
      "renounceOwnership()": {
        "details": "Leaves the contract without owner. It will not be possible to call `onlyOwner` functions anymore. Can only be called by the current owner. NOTE: Renouncing ownership will leave the contract without an owner, thereby removing any functionality that is only available to the owner."
      },
      "retireStrat()": {
        "details": "Function that has to be called as part of strat migration. It sends all the available funds back to the  vault, ready to be migrated to the new strat."
      },
      "setStrategist(address)": {
        "details": "Updates address where strategist fee earnings will go.",
        "params": {
          "_strategist": "new strategist address."
        }
      },
      "transferOwnership(address)": {
        "details": "Transfers ownership of the contract to a new account (`newOwner`). Can only be called by the current owner."
      },
      "unpause()": {
        "details": "Unpauses the strat."
      },
      "withdraw(uint256)": {
        "details": "Withdraws funds and sends them back to the vault. It withdraws {lpPair} from the MasterChef. The available {lpPair} minus fees is returned to the vault."
      }
    },
    "stateVariables": {
      "BURN_FEE": {
        "details": "Distribution of fees earned. This allocations relative to the % implemented on doSplit(). Current implementation separates 2.5% for fees. {BURN_FEE} - 1.5% goes to buying BREW and burning it. {CALL_FEE} - 0.5% goes to whoever executes the harvest function as gas subsidy. {STRATEGIST_FEE} - 0.5% goes to the strategist. {MAX_FEE} - Aux const used to safely calc the correct amounts. {WITHDRAWAL_FEE} - Fee taxed when a user withdraws funds. 10 === 0.1% fee. {WITHDRAWAL_MAX} - Aux const used to safely calc the correct amounts."
      },
      "rewardTokenToWbnbRoute": {
        "details": "Routes we take to swap tokens using PancakeSwap. {rewardTokenToWbnbRoute} - Route we take to get from {rewardToken} into {wbnb}. {wbnbToBrewRoute} - Route we take to get from {wbnb} into {brew}. {rewardTokenToLp0Route} - Route we take to get from {rewardToken} into {lpToken0}. {rewardTokenToLp1Route} - Route we take to get from {rewardToken} into {lpToken1}."
      },
      "unirouter": {
        "details": "Third Party Contracts: {unirouter} - PancakeSwap unirouter {masterchef} - MasterChef contract {poolId} - MasterChef pool id"
      },
      "vault": {
        "details": "Coffee Contracts: {vault} - Address of the vault that controls the strategy's funds. {strategist} - Address of the strategy author/deployer where strategist fee will go."
      },
      "wbnb": {
        "details": "Tokens Used: {wbnb, busd} - Required for liquidity routing when doing swaps. {rewardToken} - Token generated by staking our funds. {brew} - BREW token to buy and burn. {lpPair} - Token that the strategy maximizes. The same token that users deposit in the vault. {lpToken0, lpToken1} - Tokens that the strategy maximizes. IUniswapV2Pair tokens"
      }
    },
    "version": 1
  },
  "userdoc": {
    "kind": "user",
    "methods": {},
    "version": 1
  }
}